:020000040800F2
:10000000F8360020F51F0008210600082306000826
:100010002506000827060008290600080000000041
:100020000000000000000000000000002B06000897
:100030002D060008000000002F0600083106000809
:100040000F2000080F2000080F2000080F200008D4
:100050000F2000080F2000080F2000080F200008C4
:100060000F2000080F2000080F2000080F200008B4
:100070000F2000080F2000080F2000080F200008A4
:100080000F2000080F2000080F2000080F20000894
:100090000F2000080F2000080F2000080F20000884
:1000A0000F2000080F2000080F2000080F20000874
:1000B00029050008A5050008E90500080F2000082B
:1000C0000F2000080F2000080F2000080F20000854
:1000D0000F200008AD0400080F2000080F200008C2
:1000E0000F2000080F2000080F2000080F20000834
:1000F0000F2000080F2000080F2000080F20000824
:100100000F2000080F200008A94A00080F2000084F
:100110000F2000080F2000080F2000080F20000803
:100120000F2000080F2000080F2000080F200008F3
:1001300000F002F800F03CF80AA090E8000C8244BD
:100140008344AAF10107DA4501D100F031F8AFF29A
:10015000090EBAE80F0013F0010F18BFFB1A43F0A5
:1001600001031847C46F0000E46F0000103A24BF79
:1001700078C878C1FAD8520724BF30C830C144BF0C
:1001800004680C607047000000230024002500264E
:10019000103A28BF78C1FBD8520728BF30C148BFEA
:1001A0000B6070471FB505F0BAFC1FBD10B510BD40
:1001B00005F0D4FC1146FFF7F5FF00F023F805F039
:1001C000F2FC03B4FFF7F2FF03BC05F0F3FC000000
:1001D0000B49D1F800C04A685CF8043B1068184429
:1001E00042F8040B8C4528BFA1F1DC0C8A4228BFE1
:1001F000A1F1DC02C1F800C04A6020F00040704765
:100200008C30002004F033F904F0AAF84FF4E12018
:1002100004F0F4FA04F052FB04F06EFC04F098FCD5
:1002200004F0CFFC4EF61676404CDFF80481DFF880
:100230000491B0420DD103220021204604F04DFD6F
:10024000A17888F800102078617800EB0120A9F8E7
:10025000000001F0EFFE2D21C82004F09BFA64217C
:100260004FF4E15004F068FA0A214FF4347004F0BE
:1002700035FA314980200861304DDFF8C4A0314F94
:100280004FF0000B387858B10128FBD103F0A9FFDB
:100290002D4803F0F2FE03F06CFF03F0BBFFF1E723
:1002A00028780128EED104F08CFCB04201D04E2019
:1002B00038E085F800B0BAF8000004F0F0FCBAF8B5
:1002C000000040F603720103204804F06EFDBAF806
:1002D00000001E49401C80B2AAF800000A78497844
:1002E00002EB012181421CD1AAF800B003220021B7
:1002F0000E4804F0F2FCA17888F8001020786178AC
:1003000000EB0120A9F800000121880700F0D3FFCD
:1003100001210F4800F0CFFF01210E4800F0CBFF74
:10032000B0E74F2004F0B3FAACE700008B000020E8
:10033000780000207A0000200010014077000020A3
:100340000000002075000020300100207006002011
:1003500000040040000C00400CB500214B48019106
:100360000091026842F4803202604FF4A063026898
:1003700002F400320092019A521C0192009A12B9C2
:10038000019A9A42F3D10268920333D50121009178
:100390003F490A6842F010020A600A6822F003022C
:1003A0000A600A6842F002020A60416841604168DE
:1003B0004160416841F480614160416821F47C11F1
:1003C0004160416841F4E8114160016841F0807189
:1003D000016001688901FCD5416821F00301416099
:1003E000416841F0020141604168C1F38101022985
:1003F000FAD10CBD00910CBD244810B5016841F044
:10040000010101604168234A114041600168224AAC
:1004100011400160016821F480210160416821F4EC
:10042000FE0141604FF41F018160FFF795FF1B49FA
:100430004FF00060086010BD144910B54868184AB4
:1004400010F00C03174803D0042B01D0082B0AD05E
:1004500002604968134AC1F30311121D515C02681E
:10046000CA40026010BD4A684B6802F470124FF037
:10047000020413F4803F04EB924202D04B689B03CA
:1004800001D5094B00E0064B5A43E1E7001002405A
:10049000002002400000FFF8FFFFF6FE08ED00E03C
:1004A00000127A000400002000093D0070B5614E82
:1004B00040F225552946304601F028FC012826D176
:1004C0005D48007818BB5D4C608808B101280CD1EC
:1004D00000214FF0804000F0EEFE0021584800F06F
:1004E000EAFE0021574800F0E6FE304601F0B1FB7D
:1004F000554962888854521C90B240F6037160805E
:10050000884204D3002051496080012008702946A8
:10051000304601F005FC002805D029463046BDE8EC
:10052000704001F01CBC70BD2DE9F04101218D0728
:10053000284601F0EAF8002832D00121284601F0CF
:10054000F0F83E4C2078401CC0B2207008280FD331
:10055000002020706178491CC9B26170042900D361
:10056000607061782D20884081B2284601F0A3F8A0
:10057000374E8025356137482F02076021780120EA
:100580008840C0B203F0F0FE2178607803F003FFEA
:1005900075613048001D07602F480168491C0160E3
:1005A000BDE8F08110B5264C0121204601F0ADF8E0
:1005B000002818D00121204601F0B3F81E48007829
:1005C00048B101280FD0022809D003280BD1BDE87B
:1005D000104005F055BABDE8104005F009BABDE875
:1005E000104005F0EAB910BD10B51C4C01212046A1
:1005F00001F08BF8002812D00121204601F091F87B
:100600000B2001F05BFD0D4A154B918823F811007A
:10061000491C88B29080802801D90020908010BDAC
:100620007047FEE7FEE7FEE7FEE77047704770475A
:1006300070470000003801407500002018000020BD
:1006400000040040000C00407006002077000020ED
:1006500000100140100C0140800000200008004004
:1006600030050020914910B5884206D101210420AF
:1006700000F04BFA002104203BE08D49884206D16E
:100680000121082000F041FA0021082031E08949C9
:10069000884206D10121102000F037FA00211020F5
:1006A00027E08549884206D10121202000F02DFA5B
:1006B000002120201DE08149884206D101214020EF
:1006C00000F023FA0021402013E07D49884206D142
:1006D0000121802000F019FA0021802009E07949E9
:1006E00088420AD184150121204600F00EFA00212B
:1006F0002046BDE8104000F008BA10BD10B5012139
:10070000084600F002FA0021BDE81040012000F088
:10071000FCB9F0B5CA78002502F00F03D20601D566
:100720008A7813430A784FF00F0E12F0FF0F4FF044
:1007300001021DD0D0F800400F8802FA05F63740BC
:10074000B74211D14FEA850C0EFA0CF724EA0707DD
:1007500003FA0CF43C43CF78282F02D0482F02D064
:1007600002E0466100E006616D1C082DE4D30460E0
:100770000C88FF2C1ED944685FF0000606F10807BC
:1007800002FA07F50F882F40AF420FD14FEA860CCF
:100790000EFA0CF7BC4303FA0CF73C43CF78282F32
:1007A00000D14561CF78482F00D10561761C082E15
:1007B000E4D34460F0BD4FF6FF71018002218170E7
:1007C0000421C17070470246002092680A4200D09E
:1007D00001207047806880B2704702460020D268CE
:1007E0000A4200D001207047C06880B270470161A2
:1007F0007047416170470AB10161704741617047BC
:10080000C160704741F48032826181618261816997
:10081000806970472C4B10B51A684FF680742240DF
:1008200042EA00100843186010BD2849C8617047AB
:10083000F0B5254C002801DAE36900E06368420D59
:10084000120185B2C0F301579540C0F30346032F50
:1008500005D0C2020AD50322B240934307E023F039
:100860007062636823F07063636002E0AB4343F03F
:10087000706201B12A43002801DAE261F0BD6260D2
:10088000F0BD10B58A0721F003040F49130F21446E
:100890000F228C689A4094438C608A689840024387
:1008A0008A6010BD0949C1F8DC00704700080140AA
:1008B000000C0140001001400014014000180140EC
:1008C000001C0140002001400000014000002042C7
:1008D000A448016841F0010101604168A24A114049
:1008E00041600168A14A11400160016821F4802142
:1008F0000160416821F4FE0141604FF41F018160F5
:10090000704798490A6822F480320A600A6822F423
:1009100080220A60B0F5803F07D0B0F5802F03D168
:10092000086840F4A02008607047086840F48030F0
:10093000F9E70246002053098A49012B0AD0022B0D
:100940000AD0496A02F01F02012393400B4200D0F3
:10095000012070470968F5E7096AF3E718B5002038
:100960004FF4A06400903120FFF7E3FF0099491C89
:100970000091A14201D00028F5D03120FFF7D9FF26
:10098000002800D0012018BD76490A6822F0F8023C
:1009900042EAC00008607047754908607047714AB4
:1009A0005368084323F47C13184350607047704920
:1009B000086670476B4A516821F00301014351609A
:1009C00070476848406800F00C007047654A5168FD
:1009D00021F0F001014351607047624A516821F4EF
:1009E000E0610143516070475E494A6822F46052F9
:1009F00042EAC000486070475A4A0029517A01D043
:100A0000014300E08143517270475949C1F8D80051
:100A10007047544A516821F4404101435160704786
:100A20005049002281F8202081F82020012802D09E
:100A3000042802D1052081F8200070474D49086044
:100A4000704748490A6A02430A6270474949443973
:100A50000860704730B543494A6812F00C03464AB3
:100A600003D0042B01D0082B21D002604A680F2349
:100A7000424C03EA1212A35C0268DA4042604B68FF
:100A8000072505EA1323E35C22FA03F383604B682E
:100A900005EAD323E35CDA40C2604968032303EA32
:100AA0009131231F595CB2FBF1F1016130BD4A68FD
:100AB0004B6802F470124FF0020413F4803F04EB11
:100AC000924202D04B689B0301D52D4B00E02A4B8C
:100AD0005A43CAE7234A0029516901D0014300E083
:100AE0008143516170471F4A0029916901D0014338
:100AF00000E08143916170471A4A0029D16901D011
:100B0000014300E08143D1617047164A0029D16852
:100B100001D0014300E08143D1607047114A0029B0
:100B2000116901D0014300E081431161704711490F
:100B30004039086070470E49C86470470949C87158
:100B400070470848416A41F0807141627047054A28
:100B50000146002092680A4200D0012070470149F6
:100B600088727047001002400000FFF8FFFFF6FE99
:100B7000000042428004424200127A00220000201B
:100B800000093D002849084328490860704770B5AE
:100B90000F23C47801780122F4B1244C24684578ED
:100BA00004F4E064C4F5E064240AC4F10406E340FC
:100BB0008478B5401C402C4301F1E021230181F8E9
:100BC0000034007800F01F018A404009800000F1E5
:100BD000E020C0F8002170BD01F01F0082404809EC
:100BE000800000F1E020C0F8802170BD104A114063
:100BF00001430E48001F016070470C4A121D002976
:100C0000116801D0014300E08143116070474FF04B
:100C1000E0210428086903D020F00400086170472F
:100C200040F00400FAE700000000FA050CED00E0D7
:100C300080FFFF1FF94910B5884202D10121C41479
:100C400086E0B0F1804F09D0F54988420DD10121ED
:100C50000220FFF763FF0021022064E00121084623
:100C6000FFF75CFF002101205DE0EE49884206D1DC
:100C700001210420FFF752FF0021042053E0EA493C
:100C8000884206D101210820FFF748FF00210820F3
:100C900049E0E649884206D101211020FFF73EFFD6
:100CA000002110203FE0E249884206D101212020A6
:100CB000FFF734FF0021202035E0DE49884202D1D1
:100CC0000121441444E0DC49884202D10121CC04D2
:100CD0003EE0DA49884202D101210C0538E0D849CA
:100CE000884202D101214C0532E0D649884206D122
:100CF00001214020FFF712FF0021402013E0D249DC
:100D0000884206D101218020FFF708FF00218020C2
:100D100009E0CE4988420AD1841501212046FFF717
:100D2000FDFE00212046BDE81040FFF7F7BEC84990
:100D3000884202D101210C040AE0C649884202D14E
:100D400001214C0404E0C44988420AD101218C04E9
:100D50002046FFF7DAFE2046BDE810400021FFF7ED
:100D6000D4BE10BD30B50288AC4BB24C98420DD009
:100D7000A0420BD0B0F1804F08D0A94DA84205D0B9
:100D8000A84DA84202D0A84DA84203D122F0700578
:100D90004A882A43A54DA84206D0A54DA84203D0B3
:100DA00022F44075CA882A4302808A8882850A888C
:100DB000028598420AD0A04208D0A54A904205D0A8
:100DC000A44A904202D0A44A904201D1097A0186F5
:100DD0000121818230BD30B5028C22F001020284F3
:100DE000028C8388048B22F0020224F073050C88A5
:100DF0002C430D8915434A882A43884DA8420BD0BD
:100E00008C4DA84208D0924DA84205D0914DA842E1
:100E100002D0914DA8420DD122F008054A8923F451
:100E200040732A4322F004058A882A438D891D4392
:100E3000CB892B4383800483C9888186028430BD9B
:100E400070B5028C22F010020284028C8488038B1D
:100E50000D8823F4E6464FF6FF7303EA0525354374
:100E60000E8922F0200203EA061616434A8803EA96
:100E700002123243694EB04202D06E4EB04215D1DA
:100E800022F080064A8924F4406403EA02123243C5
:100E900022F040068A8803EA021232438E8903EA6E
:100EA00086062643CC8903EA840434438480058380
:100EB000C9880187028470BD70B5028C22F48072EB
:100EC0000284028C8488838B0D8823F073031D4376
:100ED00022F400730E894FF6FF7202EA06261E43C3
:100EE0004B8802EA032333434C4EB04202D0514EAA
:100EF000B04215D123F400664B8924F4405402EA31
:100F00000323334323F480668B8802EA03233343AD
:100F10008E8902EA06162643CC8902EA0414344379
:100F200084808583C9888187038470BD70B5028CF5
:100F300022F480520284048C8288838B0D8823F4EF
:100F4000E6464FF6FF7303EA0525354324F40056C1
:100F50000C8903EA043434434E8803EA06362643F8
:100F60002E4CA04202D0334CA04205D122F4804442
:100F70008A8903EA8212224382808583C988A0F885
:100F80004010068470BD828B22F440628283828B83
:100F90004FF6FF7303EA01210A4382837047828B75
:100FA00022F00C028283828B0A4382837047028B79
:100FB00022F440620283028B4FF6FF7303EA0121A1
:100FC0000A4302837047F0B5048C24F010040484B3
:100FD000078B048C4FF6FF7527F4734705EA03333C
:100FE0003B4305EA02221A430C4B05EA01169842DC
:100FF0000ED0104B98420BD0B0F1804F08D0084B68
:10100000984205D0074B984202D0074B984225D111
:1010100024F02001314341F0100124E0002C014074
:101020000004004000080040000C00400010004098
:101030000014004000340140004C014000500140C9
:101040000054014000180040001C004000200040F7
:1010500000400140004401400048014024F0A0034A
:101060000B4343F0100102830184F0BD028B22F098
:101070000C020283028B0A430283704770B5048C12
:1010800024F001040484058B048C4FF6FF7606EAF5
:101090000313134325F0F305F94A2B4390420ED076
:1010A000F84A90420BD0B0F1804F08D0F64A9042F7
:1010B00005D0F64A904202D0F54A904202D124F07F
:1010C000020201E024F00A020A4342F00101038314
:1010D000018470BD2DE9F05F0D4604460888E84F95
:1010E000DFF8A0C3DFF8A0834988AA882B894FF0D6
:1010F000804960B3042832D04FF6FF7E082836D0EE
:10110000208C9B4620F480502084A38B268C704634
:1011100000EA022223F473431A4300EA0B3010431F
:101120000EEA013EBC420BD0644509D04C4507D0C5
:10113000444505D0D54A944202D0D54B9C4245D176
:1011400026F4005141EA0E0141F4805143E020466B
:10115000FFF794FFE9882046BDE8F05F86E7204668
:10116000FFF731FFE9882046BDE8F05F1FE7208CDC
:1011700020F480702084B4F81CA0208C0EEA0313A5
:1011800013432AF0F30A0EEA012B43EA0A03BC4296
:101190000BD0644509D04C4507D0444505D0BB4A27
:1011A000944202D0BA4A944204D120F4007040EA3A
:1011B0000B0002E020F42060084340F48070A38319
:1011C0002084E9882046BDE8F05FE8E626F4024284
:1011D0000A4342F48051A08320462184E988BDE877
:1011E000F05FD0E62DE9F0410C460026498807461D
:1011F000012501B90226A288012A00D102252088F2
:1012000023890028384610D0FFF7DDFEE1883846F4
:10121000FFF7CDFE23892A4631463846FFF72EFFD9
:10122000E1883846BDE8F04120E7FFF727FFE18875
:101230003846FFF71BFF23892A4631463846FFF719
:10124000C2FEE1883846BDE8F041B0E610B50A8834
:101250004B88CC881A438B8823431A430B891A4343
:101260004B8989891A430A43A0F8442010BD4FF6E0
:10127000FF71818000210180C1804180017270472F
:101280000021018041808180C18001814181818173
:10129000C181704700210180418001228280C1808C
:1012A000018170470021018041808180C1800181DE
:1012B0004181818170470029018802D041F00101FC
:1012C00001E021F0010101807047002930F8441F3E
:1012D00002D041F4004101E0C1F30E0101807047EA
:1012E000002A828901D00A4300E08A438281704744
:1012F000818270471143A0F848107047002A828904
:1013000001D00A4300E08A4382817047018921F0BD
:10131000070101817047028922F070020A430281AD
:10132000704700B50346FFF7F6FF188940F0070045
:10133000188100BD70B516460D46602904464FF071
:10134000010231460AD0FFF799FE29462046FFF7F1
:10135000E2FF208940F00700208170BDFFF733FED7
:10136000F3E730B504894FF6FF7505EA032313430D
:10137000E4B20B432343038130BD10B50446FFF7AD
:10138000F0FF208940F07700208110BD10B50446A1
:10139000FFF7E7FF208940F48040208110BD0185E0
:1013A00082827047028822F070020A4302807047EE
:1013B00070B50589048B068C25F007050D434FF6A3
:1013C000FC410C4040F201110C434FF6FF7101EA61
:1013D000031126F022061143314305810483018461
:1013E00070BD028B22F070020A4302837047028BA9
:1013F0004FF6FF7322F4E04203EA01211143018317
:101400007047828B22F070020A4382837047828B7E
:101410004FF6FF7322F4E04203EA01211143818376
:1014200070470029018802D041F0800101E021F0DD
:101430008001018070470029818802D041F00401B9
:1014400001E021F00401818070470029818802D0E9
:1014500041F0080101E021F0080181807047002976
:10146000818802D041F0010101E021F00101818079
:101470007047028B22F008020A4302837047000083
:10148000002C0140003401400004004000080040EE
:10149000000C0040028B4FF6FF7322F4006203EA57
:1014A000012111430183E9E7828B22F008020A43FC
:1014B0008283E3E7828B4FF6FF7322F4006203EA34
:1014C000012111438183D9E7028B22F004020A43F0
:1014D0000283D3E7028B4FF6FF7322F4806203EAA4
:1014E000012111430183C9E7828B22F004020A43E0
:1014F0008283C3E7828B4FF6FF7322F4806203EA94
:10150000012111438183B9E7028B22F080020A4353
:101510000283B3E7028B4FF6FF73C2F30E0203EAB6
:10152000012111430183A9E7828B22F080020A4343
:101530008283A3E7828B4FF6FF73C2F30E0203EAA6
:1015400001211143818399E7028C22F002020A43B0
:10155000028493E7028C22F008020A4302848DE79A
:10156000028C4FF6FF7322F0200203EA01111143AF
:10157000018483E7028C4FF6FF7322F0800203EAB6
:1015800001111143018479E7028C4FF6FF7322F4B5
:10159000007203EA0121114301846FE7028C4FF6C8
:1015A000FF7322F4006203EA01211143018465E71D
:1015B000028C4FF6FF7322F4005203EA013111430B
:1015C00001845BE710B50123048C8B409C430484A9
:1015D000038C8A401343038410BD10B50423048C8C
:1015E0008B409C430484038C8A401343038410BDC6
:1015F00030B50124058C00F118038C40A543058407
:1016000089B108290FD0091FC1F34E0018440168A1
:1016100021F4E041016001684FF6FF7303EA022202
:101620001143016030BD03EB5100016821F07001EE
:1016300001600168F4E70029018802D041F002014D
:1016400001E021F00201018018E70029018802D0A1
:1016500041F0040101E021F0040101800EE70029BE
:10166000818802D041F0800101E021F08001818079
:1016700004E7028822F00802028002880A430280FE
:10168000FCE6828822F07002828082880A4382808F
:10169000F4E6028922F00702028102890A430281EC
:1016A000ECE6028922F08002028102890A4302816B
:1016B000E4E68184E2E68185E0E68186DEE6018774
:1016C000DCE68187DAE6A0F84010D7E6028822F44B
:1016D0004072028002880A430280CFE6808ECDE607
:1016E000008FCBE6808FC9E6B0F84000C6E6808C5C
:1016F000C4E6008DC2E602460020128A0A4200D0EB
:101700000120BBE6C9430182B8E602460020138AE5
:1017100092890B4202EA010202D0002A00D0012085
:10172000ACE6C9430182A9E6C54910B5884202D199
:10173000012144150AE0C349884202D10121041560
:1017400004E0C14988420AD10121CC032046FFF7B9
:10175000DCF92046BDE810400021FFF7D6B910BDE6
:1017600010B54268B94B0C791A400B6842EA042262
:10177000134343608368B64A1340D1E902422243CF
:101780004C7943EA44031A438260C26A097C22F41A
:101790007002491EC9B242EA0151C16210BD002166
:1017A0000160017141718160C16001210174704764
:1017B0000029816802D041F0010101E021F001011E
:1017C000816070470029816802D041F4807101E096
:1017D00021F4807181607047002A4268C9B201D04B
:1017E0000A4300E08A4342607047816841F0080183
:1017F00081607047014600208968090700D50120F3
:101800007047816841F00401816070470146002003
:101810008968490700D5012070470029816802D0F6
:1018200041F4A00101E021F4A0018160704701466C
:1018300000208968490200D5012070474268491E8E
:1018400022F4604242EA4131416070470029416818
:1018500002D041F4006101E021F400614160704771
:1018600070B5072409290AD9C568A1F10A0606EB53
:101870004606B440A543B3401D43C56007E0056973
:1018800001EB4106B440A543B3401D4305611F234E
:10189000072A09D2446B521E02EB820293409C43FA
:1018A00091400C43446370BD0D2A09D2046BD21FD2
:1018B00002EB820293409C4391400C43046370BD51
:1018C000C46A0D3A02EB820293409C4391400C4360
:1018D000C46270BD0029816802D041F4801101E02A
:1018E00021F4801181607047C06C80B27047544809
:1018F0004C30006870470029416802D041F4806193
:1019000001E021F48061416070470029416802D004
:1019100041F4805101E021F48051416070478268B8
:1019200022F4E0420A43826070470029816802D0B5
:1019300041F4004101E021F4004181607047002939
:10194000816802D041F4021101E021F402118160AA
:101950007047014600208968890200D50120704740
:1019600070B5072409290AD9C568A1F10A0606EB52
:101970004606B440A543B3401D43C56007E0056972
:1019800001EB4106B440A543B3401D430561836BA1
:10199000C3F30154121B921C02EB82041F22A240CB
:1019A0009343A1400B43836370BD826B491E22F4B5
:1019B000401242EA01518163704708B50844009023
:1019C000026008BD08B5084428300090006880B265
:1019D00008BD42681F4B1A400A434260704741628B
:1019E00082627047426822F01F020A4342607047D9
:1019F000134908310028086802D040F4000001E0D3
:101A000020F40000086070470246002012680A4275
:101A100000D001207047C9430160704710B50246ED
:101A2000002054680B0AC9B20C401168194202D058
:101A3000002C00D0012010BD6FEA11210160704719
:101A40000024014000280140003C0140FFFEF0FF5F
:101A5000FDF7F1FFFFFD3FFFC44910B588420AD1F1
:101A600001218C032046FFF750F82046BDE81040C6
:101A70000021FFF74AB8BE49884202D101214C0437
:101A800010E0BC49884202D101218C040AE0BA4925
:101A9000884202D10121CC0404E0B84988420AD12D
:101AA00001210C052046FFF739F82046BDE810401B
:101AB0000021FFF733B810BD30B50446008A85B069
:101AC0000D464CF6FF710840E98801432182A18947
:101AD0004EF6F3100140A8882A8910436A890A4308
:101AE0001043A081A08A4FF6FF410840A989014315
:101AF000A1826846FEF7AEFF9C48844201D103985C
:101B000000E00298A189090400EBC00101EB00107C
:101B1000296801D5490000E08900B0FBF1F064229A
:101B2000B0FBF2F109010B096FF018056B4300EBF4
:101B30008300A3891D044FF0320306D503EBC000D8
:101B4000B0FBF2F000F0070005E003EB0010B0FB83
:101B5000F2F000F00F000843208105B030BD4FF4D3
:101B60001651016000218180C18001810C224281D7
:101B70008181704710B5038A4FF2FF0213400A8833
:101B80004C8822438C88C9880C4322431A43028222
:101B900010BD0021018041808180C18070470029F3
:101BA000818902D041F4005101E021F4005181818A
:101BB000704710B5C1F3421301F01F040121A14089
:101BC000012B07D0022B07D01430002A026805D061
:101BD0000A4304E00C30F8E71030F6E78A4302606D
:101BE00010BD002A828A01D00A4300E08A43828223
:101BF0007047028A22F00F020282028A0A4302829E
:101C00007047828922F40062828182890A4382813C
:101C100070470029818902D041F0020101E021F0E2
:101C2000020181817047028A22F020020282028A28
:101C30000A43028270470029018A02D041F48041A0
:101C400001E021F4804101827047C1F308018180E5
:101C500070478088C0F308007047818941F0010116
:101C600081817047028BD2B20283028B42EA01214A
:101C700001837047028B02F47F420283028B0A4386
:101C8000028370470029818A02D041F0200101E0DF
:101C900021F02001818270470029818A02D041F021
:101CA000100101E021F01001818270470029818A32
:101CB00002D041F0080101E021F008018182704763
:101CC0000029818902D041F4004101E0C1F30E01F5
:101CD000818170470029818A02D041F4006101E0CE
:101CE00021F4006181827047828A22F0040282829C
:101CF000828A0A43828270470029818A02D041F099
:101D0000020101E021F002018182704702460020B9
:101D100012880A4200D001207047C94301807047F1
:101D200030B501F01F0201240025C1F3421304FA6B
:101D300002F2012B0FD0022B0FD0838A4FEA112120
:101D40000088134204FA01F400EA040001D000B153
:101D50000125284630BD8389F0E7038AEEE70A0AA9
:101D600001219140C94301807047000000380140C3
:101D70000044004000480040004C0040005000403B
:101D8000994910B588420AD1841401212046FEF7F2
:101D9000BCFE2046BDE810400021FEF7B6BE9349C8
:101DA000884202D10121041404E0914988420AD1F9
:101DB0000121C4132046FEF7B1FE2046BDE81040C5
:101DC0000021FEF7ABBE10BD30B502884C8802F48E
:101DD00041530A88CD8822438C882C4322430C89A6
:101DE00022434C8922438C892243CC8922431A43C3
:101DF0000280828B22F400628283098A018230BDD4
:101E0000F0B505460C4602200021AA8B85B00126BC
:101E10004FF240031A40AA832884AF8BA268022A9B
:101E200027D0A08800B102266846FEF713FEE1889D
:101E30000098B1F5007F2DD07101B0FBF1F000BF2B
:101E400000EB8000A1684000B0FBF1F0401D80B2C3
:101E50000A21B0FBF1F000F00101401A4FF6FF72C9
:101E6000C0F34F0002EA0121821EFE2A01D30220A4
:101E70000021E288084302432A8420886188A289DD
:101E80000843A18811430843384340F40060A88305
:101E900005B0F0BD000AD3E70021018041808180B8
:101EA000C180018141818181C18107210182704707
:101EB0000021018041808180C18002228260818175
:101EC00070470029018802D041F0400101E021F073
:101ED0004001018070470029818B02D041F480616C
:101EE00001E021F4806181837047090901238B405F
:101EF000002A828899B201D00A4300E08A43828096
:101F00007047002A828801D00A4300E08A43828019
:101F100070478181704780897047A1F57E420188B2
:101F2000FF3A02D041F4807101E021F48071018018
:101F300070470029818802D041F0040101E021F0BE
:101F4000040181807047028822F4006202800288C6
:101F50000A4302807047018841F480510180704734
:101F60000029018802D041F4005101E021F4005120
:101F700001807047012901D0008B7047808A70472B
:101F8000008A7047B1F5804F018803D021F4804169
:101F90000180704741F48041FAE70246002012892F
:101FA0000A4200D001207047C9430181704710B533
:101FB00001F00F040122034602FA04F4002009098B
:101FC0008A4091B29A88A4B20A401989214202D06B
:101FD000002A00D0012010BD01F00F020121914024
:101FE000C9430181704700000030014000380040C3
:101FF000003C00400948804709480047FEE7FEE7EB
:10200000FEE7FEE7FEE7FEE7FEE7FEE7FEE7FEE7A8
:1020100004480549054A064B70470000F9030008CB
:1020200031010008F8300020F8360020F832002096
:10203000F832002030B587B001214FF40470FEF76C
:1020400052FD4FF40040FEF7E4FC0620ADF814000A
:1020500000248DF8174005A92448FEF75AFB244DAB
:102060002846FFF761FB4FF46020CDE90204012010
:102070008DF804408DF8100000948DF805406946F5
:102080002846FFF76DFB01212846FFF791FB284604
:10209000FFF7ABFB2C462046FFF7ACFB0028FAD13C
:1020A0002046FFF7AEFB2046FFF7B0FB0028FAD131
:1020B00001212046FFF7B1FB07B030BD10B50C4C35
:1020C0000146002301222046FFF7CAFB01212046DA
:1020D000FFF7A3FB02212046FFF796FC0028F9D06A
:1020E0002046BDE81040FFF7FFBB00000010014094
:1020F00000240140010141EA1010C0B2CC2101EAE4
:102100008001332202EA90000143AA2000EA410044
:10211000552202EA510108437047F0B5FE48DFF846
:10212000FCE30024002304EB4401890109B271445B
:10213000C3F10705062205EB450700BF02EB420588
:1021400005EBC7052EB28519865D15F803CD521E25
:1021500012F0FF021CF801C006F801C06E7895F875
:1021600004C0765C0CF80160AE786D79765C6E54D4
:10217000E4D15B1CDBB2082BDAD3641CE4B2082C7C
:10218000D0D300210B46002201EB4104A40124B26C
:1021900004EB0E04C2F1070505EB4505ED00521CEA
:1021A000465D0544D2B233556E78082A3355AD7872
:1021B0002B55EFD3491CC9B20829E4D3F0BD014621
:1021C0000A2091FBF0F040B2424202EB820201EBA6
:1021D000420149B2052901DB401C40B2704700288A
:1021E00001DC404240B2704790F9002091F9003084
:1021F0009A4207DD5A4002700B7853400B70017809
:10220000594001707047884200DC0846904200DC6B
:1022100010467047F0B5C71700EB577727F0070750
:10222000C01BCF1701EB577727F00707C91BD7173C
:1022300002EB577727F00707D21BDF17DDE90554BC
:1022400003EB177727F00F07DB1BEF1705EB17776B
:1022500027F00F07ED1BC1F10701E71700EB400066
:1022600001EB410104EB177700EBC10027F00F07EA
:1022700002EB4201E41B8F01A74AA849079E46B121
:10228000165C394410447354427855548078445451
:10229000F0BD145C39440023104463544278535415
:1022A00080784354F0BDFEB51C46C31700EB536362
:1022B00023F07F03C01A9A4B089D53F820308DE815
:1022C0003400DE1703EB567003EB966620F0070030
:1022D00026F03F07181ADB1BDF1703EB577343F396
:1022E000C70746F387160B4640B232463946FFF71A
:1022F00091FFFEBD2DE9FF4F84B0844607980F463D
:10230000A0EB0C0043B211981646C01B4FFA80F8A0
:1023100012980025801B40B28146FFF760FF0246FD
:102320004046FFF75CFF01461846FFF758FFFFF7EE
:102330006AFF04460CEB8C0040004FFA80FC07EB70
:102340008700400047B206EB8600400046B203EB30
:102350008300410091FBF4F04FFA80FB08EB88000A
:10236000410091FBF4F04FFA80FA09EB890041003B
:1023700091FBF4F04FFA80F821E03046FFF71FFFA1
:1023800003903846FFF71BFF81466046FFF717FFB3
:102390000DF1500E9EE80E008DE80E004946139B8D
:1023A000039AFFF737FF0CEB0B004FFA80FC07EBAB
:1023B0000A0047B206EB08006D1C46B26DB2A5429A
:1023C000DBDB14AB11AC93E807008DE8070094E861
:1023D0000E000798FFF71EFF08B0BDE8F08F2DE94B
:1023E000F04F89461646482190FBF1F201FB12049A
:1023F00087B01D464FF0010B242C2EDA01F0A6FF0A
:1024000004F0FF0A5FF000040AEB04021C23B2FB95
:10241000F3F003FB10200E32B2FBF3F8414F03FB45
:102420001822395CBA5C4FF00F0C02F00F030CEA73
:10243000121267B2CDF814B08DE88402CDE90365BD
:1024400001F00F000CEA11113A46FFF753FF641C2C
:10245000E4B2082CD8D307B0BFE7482CFBDA01F070
:1024600075FF243C04F0FF0A5FF000040AEB04024D
:102470001C23B2FBF3F003FB10200E32B2FBF3F887
:10248000DFF8A0C003FB1822C0F11B00C2F11B0241
:102490001CF800101CF802200F2701F00F0002F0BA
:1024A0000F0307EA111107EA121267B2CDF814B050
:1024B0008DE88402CDE903653A46FFF71BFF641CF3
:1024C000E4B2082CD2D3C6E72DE9F0471746884678
:1024D000C217002100EBD26222F01F02801A124CB8
:1024E00086B01E464FF00102894644D010284BDAD0
:1024F00000259246615708290AD2CDF814A08DE82C
:102500002201CDE9037607232A460020FFF7F2FED9
:102510006D1C6DB2082D09E07C6E0008701900205A
:10252000B0660008B06800083D000020E2DB00252E
:102530006157481C08280DDA00290BDB41B2CDF8A1
:1025400014908DE82201CDE9037607232A46002066
:10255000FFF7D0FE6D1C6DB2082DE9DB002021567F
:10256000002901DD491E2154401C40B20828F6DB39
:1025700006B0BDE8F0870720211801F8070C401CC1
:1025800040B20F28F8DBB3E72028F1DA102806D193
:10259000C1F101006054491C49B20829F8DB00254B
:1025A0009246615708290AD2CDF814A08DE822017D
:1025B000CDE9037607232A460020FFF79BFE6D1C1A
:1025C0006DB2082DEDDB00256157481E07280DDA96
:1025D00000290BDD41B2CDF814908DE82201CDE940
:1025E000037607232A460020FFF784FE6D1C6DB298
:1025F000082DE9DB00202156072901DA491C215466
:10260000401C40B20828F6DBB2E72DE9F04F0E4639
:10261000014615461C460F2291FBF2F386B002FBE1
:102620001319DDE90F80C11700EB517121F007018B
:10263000421A002707213846B9F1080F70DA082A34
:102640006FD2DFE802F00429496F93B8DAFDC9F1CF
:1026500007008B464FFA80FACDF814800097CDE939
:1026600003540023CDE901A61A4639461846FFF760
:1026700041FECDF814800097CDE90354CDE901B6B1
:1026800052464B4639460020FFF734FE7F1C7FB28E
:10269000082FE1DB06B0A0E68246CDF81480009753
:1026A000CDE90354CDE901960023072239461846A7
:1026B000FFF720FECDF814800097CDE90354CDE953
:1026C00001A64B461A4639460020FFF713FE7F1C31
:1026D0007FB2082FE1DBDDE7C9F107008A464FFA38
:1026E00080F9CDF814800097CDE90354CDE9019627
:1026F0000723002239461846FFF7FCFDCDF8148069
:102700000097CDE90354CDE901A64B461A46394658
:102710000720FFF7EFFD7F1C7FB2082FE1DBB9E751
:10272000C0E0B9E08346C9F107004FFA80FACDF85E
:1027300014800097CDE903540723CDE901961A468A
:1027400039461846FFF7D6FDCDF814800097CDE93D
:102750000354CDE901B653464A4639460720FFF7F0
:10276000C9FD7F1C7FB2082FE1DB93E7C9F10700A9
:102770008B464FFA80FA0021CDF81480CDE9001A7B
:102780000296CDE903543B460A461846FFF7B2FDD0
:10279000CDF80090CDF81480CDE90354CDE901B611
:1027A0003B46524600211846FFF7A4FD7F1C7FB22E
:1027B000082FE0DB6EE78246CDF800A0CDF814804C
:1027C000CDE90354CDE901963B4607220021184686
:1027D000FFF790FDCDF80090CDF81480CDE90354BB
:1027E000CDE901A63B464A4600211846FFF782FD87
:1027F0007F1C7FB2082FDFDB4CE7C9F107008A4658
:102800004FFA80F9CDF800A0CDF81480CDE903543B
:10281000CDE901963B46002207211846FFF76AFDE5
:10282000CDF80090CDF81480CDE90354CDE901A690
:102830003B464A4607211846FFF75CFD7F1C00E037
:1028400003E07FB2082FDDDB24E7C9F107008B46E8
:102850004FFA80FACDF800B0CDF81480CDE90354DA
:10286000CDE901963B46072211461846FFF742FD87
:10287000CDF800A00021CDF81480CDE90116CDE9F6
:1028800003543B464A4607211846FFF733FD7F1C99
:102890007FB2082FDEDBFDE67F1C7FB2082FFFF63C
:1028A000CEAEF7E6B9F10F0F84DA082A75D2DFE869
:1028B00002F0042C50759DC7EDFD8346C9F10E0052
:1028C0004FFA80FAA9F107004FFA80F9CDF8148089
:1028D0000097CDE90354CDE901B600224B463946B5
:1028E0001046FFF707FDCDF814800097CDE903549B
:1028F000CDE901A60723002239464846FFF7FAFC36
:102900007F1C7FB2082FE1DBC4E6A9F107008A46ED
:102910004FFA80F9CDF814800097CDE90354CDE942
:1029200001A64B46072239460020FFF7E3FCCDF80D
:1029300014800097CDE90354CDE9019607231A4688
:1029400039464846FFF7D6FC7F1C7FB2082FE1DBF3
:10295000A0E68246C9F10E004FFA80F9CDF8148046
:102960000097CDE90354CDE901A64B460022394634
:102970000720FFF7BFFCCDF814800097CDE9035482
:10298000CDE90196002348461A463946FFF7B2FCC6
:102990007F1C7FB2082FE1DB7CE6C9E0C9F10E00A5
:1029A0004FFA80FAA9F107008B464FFA80F9CDF86B
:1029B00014800097CDE90354CDE901B607225346B0
:1029C00039461046FFF796FCCDF814800097CDE904
:1029D0000354CDE901965046002307223946FFF7FC
:1029E00089FC7F1C7FB2082FE1DB53E6C9F10E00A2
:1029F0004FFA80FAA9F107008B464FFA80F90021BF
:102A0000CDF80090CDF81480CDE90116CDE903543E
:102A10003B460A461846FFF76DFCCDF800B0CDF8EE
:102A20001480CDE90354CDE901A63B460022494676
:102A30001846FFF75FFC7F1C7FB2082FDFDB29E61B
:102A4000A9F107008A464FFA80F9CDF80090CDF839
:102A50001480CDE90354CDE901A63B4607220021AD
:102A60001846FFF747FCCDF800A0CDF81480CDE95B
:102A70000354CDE901963B46072249461846FFF725
:102A800039FC7F1C7FB2082FDFDB03E68246C9F1E9
:102A90000E004FFA80F9CDF80090CDF81480CDE902
:102AA00003543B4600220721184600E016E0CDE91A
:102AB00001A6FFF71FFCCDF800A0CDF81480CDE9EA
:102AC0000354CDE901963B46494600221846FFF7DC
:102AD00011FC7F1C7FB2082FDDDBDBE5C9F10E00A6
:102AE0004FFA80FAA9F107008B464FFA80F9CDF82A
:102AF00000A0CDF81480CDE90354CDE901B63B46E2
:102B0000072211461846FFF7F5FB0021CDF8148087
:102B1000CDE900190296CDE903543B465146072200
:102B20001846FFF7E7FB7F1C7FB2082FDFDBB1E51C
:102B30007F1C7FB2082FFFF6B8AEABE52DE9F04160
:102B400080460E46DDE906101546401BA3EB080241
:102B5000891B4FFA80FC53B24FB26046089CFFF7C6
:102B60003EFB02463846FFF73AFB01461846FFF7A0
:102B700036FBFFF748FB06EB860203EB83035B00A3
:102B800007EB870693FBF0F3760096FBF0F608EB75
:102B90008801490005EB850552006D000CEB8C07A0
:102BA0007F0097FBF0F049B25BB203FB041352B213
:102BB0006DB276B240B2FE4906FB04220B7000FBF8
:102BC00004504A708870BDE8F0812DE9FF4F86B04F
:102BD0008A46DDE91854DDE916769B4614A908A853
:102BE000DDF84C90DDF85480FFF7FEFAC4B19DF992
:102BF00020400EE0CDF800900397CDE90148CDE9E3
:102C000004655B46224651460698FFF773FB641C39
:102C100064B29DF950008442ECDD0AB0BDE8F08F4B
:102C2000CDE90287CDE904659DF920205B46CDE919
:102C3000009251460698FFF75DFBCDE904659DF9CA
:102C40005020CDE90287CDE900925B4651460698B7
:102C5000FFF750FBCDE904659DF95010CDE90287DF
:102C6000CDE900915B469DF9202049461846FFF7C3
:102C700041FBCDE904659DF95010CDE90287CDE90E
:102C800000A1069B9DF9202051461846FFF732FB14
:102C9000C3E72DE9F04F16461D46242290FBF2F3C0
:102CA00002FB13040F46C2480021C01C88B04FF03D
:102CB000010A8946082C41DA3CB90721421802F87A
:102CC000071C491C49B20B29F8DB00244FEA000815
:102CD00018F9041008290CDAC4F1070043B28DE892
:102CE0008A00CDE90365CDE905A922461046FFF724
:102CF0006CFF18F9040007280FDAC4F10701CDE9C9
:102D000004594BB2401C41B20396CDF818908DE89F
:102D10008A0022461046FFF758FF641C64B2042C58
:102D2000D6DB002041460A56032A01DD521E0A5412
:102D3000401C40B20428F6DB08B06FE70B2C40DAE9
:102D4000082C06D1C1F105024254491C49B204299C
:102D5000F8DB01244FEA000818F90410042920DAEE
:102D6000C4F1070043B28DE88A00CDE90365CDE9DF
:102D700005A922469B461046FFF727FF18F90400D5
:102D800003280EDACDE90459401C41B2CDF8189061
:102D9000CDE9001BCDE9027622465B461046FFF7DF
:102DA00014FF641C64B2042CD6DB0020424611568A
:102DB000002901DD491E1154401C40B20428F6DBF5
:102DC000BAE70E2C41DA0B2C07D10121C1F1040224
:102DD0004254491C49B20429F8DB01244FEA000897
:102DE00018F90410002920DBC4F1070043B28DE874
:102DF0008A00CDE90365CDE905A922469B46104628
:102E0000FFF7E3FE18F9040000280EDDCDE90459B0
:102E1000401E41B2CDF81890CDE9001BCDE90276F5
:102E200022465B461046FFF7D0FE641C64B2042CB9
:102E3000D6DB012041460A56032A01DA521C0A5405
:102E4000401C40B20428F6DB76E7112C3DDA0E2C4C
:102E500005D14A1C52B242541146042AF9DB01241E
:102E60004FEA000818F90410032920DDC4F1070017
:102E700043B28DE88A00CDE90365CDE905A9224674
:102E80009B461046FFF7A1FE18F9040003280EDD4B
:102E9000CDE90459401E41B2CDF81890CDE9001B90
:102EA000CDE9027622465B461046FFF78EFE641C93
:102EB00064B2042CD6DB002041460A5C521C0A5442
:102EC000401C40B20428F8DB36E7142C3FDA112C02
:102ED00007D10321421802F8021C491C49B20629F5
:102EE000F8DBD34601248246CDE90365CDE905B977
:102EF000C4F107004FFA80F81AF90410CDE9001860
:102F00002246434610460297FFF75FFECDE904597B
:102F10000396CDF818901AF804002246401C41B2DE
:102F2000CDE90018029743461046FFF74EFE641C99
:102F300064B2042CD8DB002051460A56032A01DD76
:102F4000521E0A54401C40B20428F6DBF4E6172C4B
:102F500044DA142C07D100BFC1F105024254491CC8
:102F600049B20429F8DB01244FEA000818F90410DB
:102F7000042923DAC4F1070043B28DE88A00CDE9C1
:102F80000365CDE905A922469B461046FFF71DFEC5
:102F900018F90400032811DACDE90459401C41B2A4
:102FA000CDF81890CDE9001B22465B46104601E0A3
:102FB00032000020CDE90276FFF707FE641C64B200
:102FC000042CD3DB002041460A56002A01DD521EA4
:102FD0000A54401C40B20428F6DBADE61A2C47DA4E
:102FE000172C08D1C1F103024254491C49B20429EB
:102FF000F8DB022101704FF0000883461BF908102E
:10300000002921DBC8F1070043B2CDE90693CDF8D2
:1030100014A08DE88A00CDE9036542461046FFF70B
:10302000D4FD1BF9080000280EDBCDE90459401C33
:103030000396CDF8189041B2079A8DE88600424673
:103040001046079BFFF7C1FD08F101004FFA80F819
:10305000B8F1030FD2DB00205946143CA04202DA3B
:103060000A5C521E0A54401C40B20428F6DB63E698
:10307000242CB2DA1A2C05D18A1E4254491C49B2BA
:103080000429F9DB0024804618F90410002920DB0C
:10309000C4F1070043B28DE88A00CDE90365CDE9AC
:1030A00005A922469B461046FFF78FFD18F904102C
:1030B00000290EDBCDE90459491E49B2CDF818901C
:1030C000CDE9001BCDE9027622465B461046FFF7AC
:1030D0007CFD641C64B2042CD6DB002042461156F1
:1030E000072901DA491C1154401C40B20428F6DBC0
:1030F00022E62DE9FF4F86B09346DDE91854DDE95D
:103100001676DDE9149809A906A8DDF84CA0FFF7AA
:103110006BF8ACB19DF918400DE0CDE90465CDE93F
:103120000287CDE900A923465A4618460799FFF7BA
:10313000E1F8641C64B29DF924008442EDDD6CE585
:10314000CDE90465CDE900A9CDE902879DF91830E4
:103150005A4618460799FFF7CDF8CDE90465CDE941
:103160000287CDE900A99DF924305A4618460799EF
:10317000FFF7C0F8CDE90465CDE900A9CDE90287E4
:103180009DF924304A4651469DF91800FFF7B2F8E0
:10319000CDE90465CDE902870799CDE9001B9DF9CA
:1031A00024305A469DF918000799FFF7A3F834E533
:1031B0002DE9FF4F86B09B46DDE91854DDE9167610
:1031C000DDE91498924613A907A8FFF70DF8ACB1F2
:1031D0009DF91C400DE0CDE90049CDE90465CDE93C
:1031E00002875B46524621460698FFF783F8641C27
:1031F00064B29DF94C008442EDDD0EE5CDE9028715
:10320000CDE904659DF91C10CDE900195B465246D5
:103210000698FFF76FF8CDE904659DF94C10CDE9EC
:103220000019CDE902875B4652460698FFF762F81F
:10323000CDE904659DF94C10CDE90287CDE900196F
:103240005B464A469DF91C101846FFF753F8CDE936
:1032500004659DF94C10CDE9001ACDE90287069B63
:1032600052469DF91C101846FFF744F8D5E42DE9A5
:10327000FF4F88B04FF0000BDDE9157A0A98DDE9C1
:103280001941DDE91765AAEB000040B2FEF7A7FF80
:1032900007900A98C0F107004FFA80F9CAF10700B9
:1032A0004FFA80F811BB26E01B98CDE90265002893
:1032B0004FF00100CDE90440069008D00898CDE910
:1032C0000078584440B203464A46099908E00899F4
:1032D000CDE9007A01EB0B00DDE9091243B2184693
:1032E000FFF773FC0BF101004FFA80FB07998B4548
:1032F000DADD0CB092E41B990020E9B304A98346FF
:103300004FF0010A81E8100CCDE90265DDE90831D2
:10331000CDE900784A461846FFF757FC04A94A460B
:1033200081E8100CCDE90078CDE902650B9B099985
:103330001846FFF74AFCCDF814A00296CDE90354D5
:103340000999CDE90019DDE908014A460B9BFEF712
:10335000D1FFCDF814A00097CDE90196CDE9035433
:103360004A4639460B9B0898FEF7C4FFCDF814A0D7
:103370000296CDE9035400E012E00999CDE9001866
:10338000DDE9080142460B9BFEF7B4FFCDF814A01F
:103390000097CDE90186CDE9035442460B9B51E0ED
:1033A00004A981464FF0010881E81003CDE90265C8
:1033B000CDE9007ADDE9083118460A9AFFF705FCE5
:1033C00004A981E81003CDE90265CDE9007A0DF189
:1033D000240999E80E001846FFF7F7FBCDF8148092
:1033E0000296CDE90354DDE909010DF12009CDE98B
:1033F000000199E80F00FEF77DFFCDF814800296DA
:10340000CDE903540A983946CDE90070DDE90A2375
:103410000898FEF76FFFCDF814800296CDE90354AB
:103420000999CDE9001ADDE9080152460B9BFEF728
:1034300061FFCDF814800097CDE90354CDE901A6D2
:103440000B9B524639460898FEF754FF51E72DE989
:10345000F04F0E4615466C2190FBF1F289B001FB4E
:10346000120A1C460027DDF8489000F06FFF01208B
:103470004FF00708BAF1060F7EDAB9F1000F7CD0E1
:103480000021CDF80080CDE90501CDE90354CDE957
:1034900001860622012311460020FFF7E8FEB9F15C
:1034A000000F6BD000210120CDE90501CAF1070012
:1034B0004FFA80FB0721CAF10600CDE9001B42B29A
:1034C0000AF10100029643B2CDE90354174698462B
:1034D00006215046FFF7CBFEB9F1000F78D000214E
:1034E0000120CDE9050107200090CDE90106CDE9D5
:1034F00003540622434611465046FFF7B8FEB9F181
:10350000000F67D000210120CDE905010721CDE999
:10351000001B0296CDE9035403463A4606210020DB
:10352000FFF7A5FEB9F1000F56D000210120CDE92B
:1035300005010721CDF800B0CDE90116CDE903540E
:103540000346394606220020FFF791FEB9F1000F2D
:1035500044D000210120CDE90501CDF800B0CDE92E
:1035600001B6CDE903543A46114643465046FFF7AB
:103570007EFEB9F1000F02E036E025E026E02FD014
:1035800000210120CDE905010721CDF800B0CDE9EA
:103590000116CDE903543946434606225046FFF74B
:1035A00066FEB9F1000F1DD000210120CDE9050113
:1035B000CDF800B0CDE901B6CDE903543A46012378
:1035C00011460020A5E103E001215AE701216AE745
:1035D000012185E7012196E70121A7E70121B9E74C
:1035E0000121CEE70121E0E7F949BAF11E0F4BDADC
:1035F000BAF1060F08D100BF07EB47035B00CB55BC
:103600007F1C7FB2042FF7DB00278346F048C157A9
:10361000182091FBF0F200FB1210EE490022085C2A
:1036200059464FEA101A00F00F0808F10100CDF8D2
:1036300014B008908DE843000AF10103CDE9069328
:10364000CDE9035441465046FFF711FECDE903543E
:10365000CDE905B9089807218DE8430006224146C7
:103660005046079BFFF703FE7F1C7FB2042FCDDB84
:10367000D74900200A5C521C0A54401C40B204285E
:10368000F8DB09B0BDE8F08FBAF1360F3CDA8346BB
:10369000CF48C157182091FBF0F200FB1211CD4822
:1036A0000022405C59464FEA101800F00F0A0AF158
:1036B0000100CDF814B008908DE8430008F1010333
:1036C000CDE90693CDE9035451464046FFF7CFFDBF
:1036D000CDE90354CDE905B9089807218DE84300E9
:1036E000062251464046079BFFF7C1FD7F1C7FB273
:1036F000042FCDDBB64900200A5C521E0A54401C40
:1037000040B20428F8DBBCE7BAF14E0F3DDA83463D
:10371000AF48C157182091FBF0F200FB1211AD48E1
:10372000405CCDF814B04FEA101A00F00F0808F111
:103730000100CDE900B00AF101030296CDE906933C
:103740000890CDE90354424600215046FFF78FFD13
:10375000CDE90354CDE905B908980721CDE900105A
:103760000296424606215046079BFFF780FD7F1CCC
:103770007FB2042FCCDB964900200A5C521C0A540D
:10378000401C40B20428F8DB7BE7BAF1660F3DDA53
:1037900083468F48C157182091FBF0F200FB1210AE
:1037A0008C49085CCDF814B04FEA101A00F00F08ED
:1037B00008F10100CDE900B00AF101030296CDE95C
:1037C00006930890CDE90354424600215046FFF786
:1037D0004EFDCDE90354CDE905B908980721CDE99F
:1037E00000100296424606215046079BFFF73FFD18
:1037F0007F1C7FB2042FCCDB754900200A5C521E6F
:103800000A54401C40B20428F8DB3AE7BAF16C0FC6
:10381000BADA834607200090CDE90106CDE90354CA
:10382000CAF16C01CDE905B94FFA81FA06220123EC
:1038300011460020FFF71BFDCAF107004FFA80F880
:103840000721CDF814B0CDE900180AF101014BB2FF
:103850000296CDE90693CAF1060047B2CDE90354BA
:103860003A4606215046FFF702FD07200090CDE9B9
:103870000106CDE90354CDE905B9062211465046AB
:10388000079BFFF7F4FC0721CDE900180296CDE96C
:103890000354CDE905B93A46012306210020FFF77C
:1038A000E6FC0721CDF80080CDE90116CDE90354EF
:1038B000CDE905B93946012306220020FFF7D7FCE0
:1038C000CDF80080CDE90186CDE90354CDE905B9F5
:1038D0003A4611465046079BFFF7C9FC0721CDF831
:1038E0000080CDE90116CDE90354CDE905B939468B
:1038F00006225046079BFFF7BAFCCDF80080CDE9C1
:103900000186CDE90354CDE905B93A4611460123B4
:103910000020FFF7ACFCB4E62DE9F04F0F46002184
:1039200016461D46FF2290FBF2F3DFF8A4A002FB2F
:1039300013048BB089464FF01C0B0AF10C0AECB350
:10394000552C51DA00F002FDDFF888B04FF0000985
:103950000BF1180B1AF909001C2290FBF2F102FB83
:1039600011010E3890FBF2F802FB180040B21BF870
:1039700001101BF800000122CDE904524309C0F3F5
:103980008200CDE900094FEA511CCDE90276C1F36E
:1039900082014A466046FEF7ADFC09F101004FFA8C
:1039A00080F9B9F1080FD5DB0020A4F14702514698
:1039B000844206DD904204DD0B5C00E00CE05B1C01
:1039C0000B54401C40B20828F2DB0BB05AE6000052
:1039D00039000020CC6800080E2250464254491C91
:1039E00049B20829FADBADE7AA2C3EDA00F0AEFCBA
:1039F000DFF890B41AF909201C2392FBF3F003FBC3
:103A000010210E3A92FBF3F803FB182252B21BF876
:103A100001101BF802000122CDE904524309C0F352
:103A20008200CDE900094FEA511CCDE90276C1F3CD
:103A300082014A466046FEF75DFC09F101004FFA3B
:103A400080F9B9F1080FD5DB0020A4F155025146E9
:103A50009C3C824204DDA04202DD0B5C5B1E0B54E9
:103A6000401C40B20828F4DBAFE74FF000084FF0ED
:103A70000709C72C3FDA00F069FC9AF900005946A3
:103A800090FBF1F20BFB1203FE4A0E384FF00108D7
:103A9000D35C5C09C3F38203CDE9073490FBFBF3ED
:103AA0000BFB130040B2105C02974FEA501BC0F3AF
:103AB00082040020CDE90580CDE90049CDE9036508
:103AC0000246DDE907105B46FFF77FF80020CDE9ED
:103AD00005800620CDE900400297CDE90365DDE9C8
:103AE00007105B460122FFF770F89AF80000401CAF
:103AF0008AF8000069E7D72C2ADA00F027FC9AF947
:103B000000105A4691FBF2F00BFB10100E3991FB9E
:103B1000FBF8DC4B0BFB181149B213F800C0595CE1
:103B20004FEA5C104B09C1F382020121CDE9045137
:103B30000691CDE90029CDE90276CCF3820C5446FA
:103B400000226146FFF741F82078401E20703CE7D4
:103B5000DF2C0BDAD73CCDE9045860B2CDE9008008
:103B6000CDE9027600231A4601460EE0E52C0FDA75
:103B7000DE3C60B2CDF80090CDF81480CDE90107AD
:103B8000CDE9036507231A460146FEF7B3FB1CE7A0
:103B9000EC2C10DA00F0DAFBE43C61B2C1F1070072
:103BA000CDE9045843B20722039611461046CDF8DA
:103BB000188000930EE0F22C11DA00F0C7FBEB3C0A
:103BC00060B2CDE90458C0F10700039643B2CDF8C6
:103BD00018800FE0CDE90137FFF749FBF5E6F92C36
:103BE0000DDA00F0B3FBCDE90458F13C63B2039663
:103BF000CDF818800022114610460093EAE7FF2C0A
:103C0000A5DA00F0A3FBF83C63B2CDE90458C3F198
:103C1000070040B20396CDF818800090CDE9010767
:103C2000002211460720D7E72DE9F0430F4616463C
:103C3000CC2190FBF1F201FB120087B01D464FF042
:103C400001084E282ADA0D2190FBF1F201FB120047
:103C50008C494FF007091C310C5C20090FD004F08F
:103C60000F04CDF80090621CCDF81480CDE9012737
:103C70000023CDE9036519461846FEF73BFBCDF856
:103C8000009062B2CDF81480CDE901270023CDE980
:103C9000036519461846FEF72DFB2CE0794A4132A0
:103CA000A2F118018D2815DA4E38C0B2105C085CFC
:103CB000CDE90438010900F00F02501C4B1CCDF86F
:103CC0001880CDE90030CDE9027600231846FEF7D2
:103CD0007CFF10E0CC2813DA8D38C0B2105C085C91
:103CE000CDE90063010900F00F02CDF808803B46E2
:103CF0000020FEF78FFA07B0BDE8F043FEF70DBADB
:103D000007B0BDE8F0832DE9F04FD51702EB15752C
:103D100025F00F05A2EB0508DA17DDE9094A03EBE8
:103D2000127222F00F029B1AE21704EB127222F0B9
:103D30000F02A41ACA17814601EB5272002022F02A
:103D40000702891ADFF840B1DFF840E1C1F1070549
:103D50004FEAD001BAF1000F01EB41010BD000F0A6
:103D60000702C2F1070202EB420201EBC201C9B233
:103D700005EB45020AE005EB450201EBC20100F04C
:103D80000702C2F10702C9B202EB420209EBD006F8
:103D90009201377800F0070C802626FA0CF637429D
:103DA0000AD01BF801607244594406F802804E782C
:103DB000B35489788C540AE01BF801C07244002681
:103DC00059440CF802604F78BE5489788E54401CD8
:103DD000C0B24028BCD355E42DE9FC431D46099FE1
:103DE0009046894606460024CDE9005706EBC400FC
:103DF00043464A4661B2FFF786FF641CE4B2082CD2
:103E0000F2D3BDE8FC832DE9FF4F4D2290FBF2F386
:103E100081B002FB1300DDE90FB61D4A4FF0000A26
:103E2000B0B1402850DAC31700EB5373C3F3C70592
:103E300023F007034F5DC01A012101FA00F817EAC9
:103E400008074AD006249146BBF1010F0AD00BE0C7
:103E50000023FF24D5185B1CDBB285F83840082B03
:103E6000F8D3E0E7062C07D0E0000830411B01EB57
:103E70000900C179B943C171C5EBC40101EB090067
:103E8000C17907E0E46800087C6E00087019002022
:103E9000B000002041EA0801C1710096DDE903127B
:103EA0006F480E9BFFF798FF641E14F0FF04CBD100
:103EB000C5F10F02C5F1070109F802A019F80120A8
:103EC0003A4309F8012001E0442808DA0096DDE9C8
:103ED000031263480E9BFFF77FFF05B07BE702D11B
:103EE00082F800A0F9E74C280DDA4FF0070000BF78
:103EF00002EB000111F8011C1154A0F1010010F0B7
:103F0000FF00F5D1E2E7E8D1002051461154401CF2
:103F1000C0B20828FAD3E0E770B50446049D00203B
:103F200005F001062654401C6D08C0B20828F7D3DE
:103F3000E07940EA4300E071A07903F08003184380
:103F4000A0710020C0F10706C0F1050302FA06F6D1
:103F5000E55C06F080063543401CC0B2E5540628F7
:103F6000F0D30846FEF7C6F821787E2202EA500018
:103F70000143217070BD2DE9FF4F982290FBF2F3B1
:103F8000384C02FB130281B0A4F10807A4F110051C
:103F9000A4F118064AB90020034623543B542B547D
:103FA0003354401CC0B20828F7D32E48530700F101
:103FB000080011D1D31702EB5372C2F3C7030022DA
:103FC00002EBC30CC2F10708521C11F80CC0D2B2AC
:103FD00000F808C0082AF3D3DFF884B04FF0000CD3
:103FE000BA4681460BF1400B16F80C00410015F85B
:103FF0000C0041EAD011C9B206F80C101AF80C30C6
:10400000420042EAD312D2B205F80C2014F80C7028
:104010005B0043EAD713DBB20AF80C3019F80C80C6
:10402000780040EAD810C0B204F80C004FEA480803
:1040300009F80C8000900BEBCC00FFF76DFF0CF142
:10404000010C0CF0FF0CBCF1080FCDD30F980090C1
:104050000348DDE9031240300E9BFFF7BDFE3CE74D
:10406000B0000020650000200146012001E0401C56
:10407000C0B249080129FAD170472DE9F04F054631
:104080008FB0012080468020FFF7EEFF40456DD3C2
:10409000022000FA08F0C0F34F0005904008002607
:1040A0000490401E07905BE08020FFF7DDFF014693
:1040B0000220884040FA08F0401070436F4980B2F7
:1040C000344651F820B0A1F5807151F820000B90D2
:1040D00041E004980B99204487B205EBC7000C908F
:1040E0004068029002F032F955F837A081465946EF
:1040F000504602F02BF9494602F0F4F98146594640
:10410000029802F023F9069050460B9902F01EF92E
:10411000069902F07FF88246494655F8340002F0CD
:10412000E1F945F8370005EBC4075146786802F01D
:10413000D9F901460C984160494655F8340002F01F
:1041400069F845F834005146786802F063F8786001
:104150000598204484B27F2CBBD9761C0798B6B250
:104160008642A1DD08F1010080B28BE70FB0BDE807
:10417000F08F2DE9F047424D01244FF0FF3A05F54D
:10418000A06964B35FF0400001F0CAFE064605EB8B
:10419000C4000F464068014602F0D8F8804655F842
:1041A0003400014602F0D2F8414602F033F802F042
:1041B00005F801F005FD32463B4601F059FD01F0DE
:1041C00025FD45F83400514602F033FA02F08AF832
:1041D00009F80400641C402CD3DBBDE8F087802084
:1041E000D2E72DE9F0410024DFF89880264E244DD7
:1041F000274600BF38F8140002F094F856F824104F
:10420000641C802C45F8310005EBC1004760F1DBF0
:10421000BDE8F0812DE9F0470022DFF870A0DFF85B
:1042200070901C4B114600BFC2F13F0000EB4000F4
:10423000C4B20AEB020519F804704C4495F801C0A9
:10424000667894F802500020C0F1070404EB44049F
:10425000A4011C4484453955315504D94FF00A084E
:1042600005F8048000E02955401CC0B20828EBD3B3
:10427000521CD2B2402AD7D3AFE700007C6B0008B3
:1042800030010020300500207C6C00083006002042
:104290007C6E0008701900202DE9F041844C854D9A
:1042A00090460F4606462068298800EB8000C1EB47
:1042B000C101084401F01EFCFBF78AFFC11700EBA7
:1042C000117121F00F01401A30702068298800EB2D
:1042D000400001EBC101084401F00CFCFBF778FF42
:1042E000C11700EB117121F00F01401A38702068DE
:1042F0002988C0EBC00001EB8101084401F0FAFB02
:10430000FBF766FFC11700EB117121F00F01401A96
:1043100040B288F800003178002904D139780029AA
:1043200001D10028BFD0BDE8F08100EB40004FF67E
:10433000FF7202EA801010B500215F4A0B460C188C
:10434000491C89B21355C029F9D310BD10B50024FA
:104350002046FFF7EAFF641CE4B2082CF8D310BD36
:104360004FF48060FCF70EBC70B5544A4FF4807473
:104370000021546140255315536120FA01F6F607D8
:1043800007D055611361491CC9B20829F4D31461DF
:1043900070BD1561F6E7F0B501F0070101EB4101D1
:1043A0008D01002200F003000121814044484FF4B8
:1043B0008046CCB20660DFF800C187144114031FA9
:1043C000016002EB050E1CF80EE01EEA040F01D09E
:1043D0001F6000E007601960521CD2B2C02AEFD300
:1043E0001E60F0BD2DE9F047364B374CDFF8C8A012
:1043F000002200BF02EB42004FEA421900210AEB03
:10440000801000BF01EB41056D0001EB090714F8B6
:104410000580DE5D254406F00F0C08F800C095F815
:1044200003C036091F440CF8006097F8006195F846
:10443000018006F00F0C360908F800C095F804C09A
:10444000491CC9B20CF8006097F8006295F802C0E8
:1044500006F00F0736090CF800706D7920292E54EC
:10446000D0D3521CD2B2082AC4D3BDE8F08738B5E5
:1044700001211820FCF737FB4FF47040ADF8000025
:1044800003240F488DF8024010258DF8035069462B
:104490001438FCF73EF94FF47070ADF800008DF859
:1044A00002408DF8035069460448FCF732F938BDE4
:1044B00080000020240C00407019002000100140F2
:1044C000140C0140701600207C6E0008F0B5814885
:1044D000814D022190F9034090F9042090F90530B4
:1044E000ED780EE001EB41068757BC4208D1064447
:1044F00096F90170BA4203D196F90260B3420ED028
:10450000491CA942EEDB072C09D8002A07DB072A41
:1045100005DC002B03DB072B01DC0020F0BD0120B4
:10452000F0BD6D4B10B500220320D87069491046CC
:1045300002EB4204521C08550C44142A6070A0700F
:10454000F6DB0122CA70087148718871C87108725F
:1045500018705870987010BD2DE9F0415D4C5E4D9B
:104560004FF08048B8F8240001F0C4FAFBF730FEA1
:10457000C11700EB517121F00701401A2070FBF7C1
:1045800027FEC11700EB517121F00701401A60703E
:10459000FBF71EFEC11700EB517121F00701401A15
:1045A00041B2A170012094F9003094F90160EA78D9
:1045B00010E000BF00EB400714F907C09C4508D18C
:1045C000274497F901C0B44503D197F902708F428F
:1045D000C8D0401C9042EDDDBDE8F0813D4810B5EB
:1045E00090F9031090F9002091421AD190F904102B
:1045F00090F90120914214D190F9051090F9020030
:1046000081420ED13448C178491CC9B2C170152904
:1046100002D0BDE810409FE70321C170FFF781FF82
:10462000F7E710BDF0B52C4890F9003090F9014043
:1046300090F9025043EA0401294318D0C178254873
:104640000AE000BF01EB4106321812F8037D8755DE
:104650005678167196785671491EF3D181791944AE
:10466000C170C17921440171017A29444171F0BDC1
:104670002DE9FF4F83B09046DDE910BA8946FFF778
:1046800065FE01242646134D134F0FE0CDF8009030
:10469000CDE9018604EB44004119285691F9022026
:1046A00091F90110039BFDF7B5FD641CF878844275
:1046B000ECDBCDF800B0CDE901A695F9022095F923
:1046C000011095F90000069BFDF7A4FD07B0BDE8B9
:1046D000F08F0000701F00208E0000207FB50C4678
:1046E000054601210420FCF707FA6D1EADF80440D1
:1046F000ADF8005000243F4DADF80640ADF8024043
:1047000069462846FCF72EFB012241212846FCF78A
:10471000E7FD1E208DF80C0002208DF80D008DF8AD
:104720000E4001208DF80F0003A8FCF730FA01219C
:104730002846FCF7C0FD7FBD7FB50C46054601212C
:104740000220FCF7D9F96D1EADF80440ADF8005019
:104750000024294DADF80640ADF8024069462846D0
:10476000FCF700FB012241212846FCF7B9FD1D2082
:104770008DF80C0004208DF80D008DF80E400120FE
:104780008DF80F0003A8FCF702FA01212846FCF778
:1047900092FD7FBD7FB50C46054601210846FCF71A
:1047A000ABF96D1EADF80440ADF8005000244FF099
:1047B0008045ADF80640ADF8024069462846FCF752
:1047C000D1FA012241212846FCF78AFD1C208DF8F0
:1047D0000C0003208DF80D008DF80E4001208DF89F
:1047E0000F0003A8FCF7D3F901212846FCF763FD6D
:1047F0007FBD0000000800400004004030B50446C2
:1048000087B0012144F20400FCF76DF94FF4806099
:10481000ADF810000420274D8DF8130004A9284698
:10482000FBF777FF6815ADF8100018208DF813001E
:1048300003208DF8120004A92846FBF76AFF0094B4
:104840000024ADF808400C201B4DADF80640ADF833
:104850000A00ADF80440ADF80C4069462846FDF763
:104860002BF901212846FDF79AF9012240F2255142
:104870002846FDF79EF925208DF814008DF8154087
:104880008DF8164005A8FCF782F907B030BD70B569
:10489000094C054640212046FDF738FA29462046B6
:1048A000FDF7D3F940212046FDF730FA0028F9D072
:1048B00070BD0000000801400038014070B586B0AE
:1048C00001211120FCF70FF90124ADF81040482018
:1048D0008DF8130004A98048FBF71BFF0121082075
:1048E000FCF70AF94FF49670ADF804004720ADF8D4
:1048F00000000025794EADF80650ADF8025069462B
:104900003046FCF72FFA012241213046FCF7E8FC43
:1049100032208DF80C008DF80D408DF80E508DF87A
:104920000F4003A8FCF733F901213046FCF7C3FC24
:1049300006B070BD70B56A4C0121E068401CE060B3
:104940006078A0706448FBF73EFF6070A178002992
:104950002FD000282DD1E2680021332A0AD8012364
:10496000262A03D9E3702020207121E0E078F8B1F5
:104970000A2A01D9E1701BE05948401DC5786D082D
:10498000C570052A02D945F08002C2702279521EF4
:1049900012F0FF02227102D0520703D008E0E1704A
:1049A000237005E04278027082784270C27882708B
:1049B000E16070BD2DE9FC4149480024401D494A91
:1049C0008378494849494A4D4A4E402B3FD012DC32
:1049D000152B3CD008DCA3F10703062B37D2DFE808
:1049E00003F0363636363638162B46D0182B2ED1F5
:1049F0000223137042E0472B29DD4A2B27D0522B8C
:104A000025D05A2B23D05E2B21D103231370048091
:104A10000C80FFF79BFC01212846FCF74CFC012190
:104A20002846FCF748FC00213046FCF744FC0021F6
:104A30003046FCF740FCFFF774FDFFF78DFD0A20C0
:104A4000CDE9000400231A460121FFF711FEBDE85D
:104A5000FC810123137004800C80FFF777FC002198
:104A60002846FCF728FC00212846FCF724FC0121FD
:104A70003046FCF720FC012111E0147004800C800A
:104A8000FFF764FC01212846FCF715FC01212846AC
:104A9000FCF711FC00213046FCF70DFC00213046EC
:104AA000BDE8FC41FCF707BC10B50C4C01212046C9
:104AB000FCF72BFE00280DD001212046FCF731FE2B
:104AC000FFF738FF064C2078012803D1FFF772FF6B
:104AD0000020207010BD000000100140000C0040BC
:104AE0009400002075000020840000208600002033
:104AF0000004004000080040F8B5012141F2040024
:104B0000FBF7F1FFE020ADF8000018208DF803005E
:104B1000CC4E03248DF8024069463046FBF7F9FD80
:104B200001210420FBF7DFFF0825ADF8005010201D
:104B30008DF803008DF8024069463046FBF7E9FD29
:104B4000C0481030056008213046FBF75BFEF8BD19
:104B500010B5012186B00803FBF7C5FFBA4C002150
:104B60002046FDF7AEF96015ADF80A004FF48270EB
:104B7000ADF802000220ADF8060000210120ADF8DA
:104B80000800ADF80E100720ADF80410ADF80010C5
:104B9000ADF81000ADF80C1069462046FDF714F989
:104BA00001212046FDF78DF906B010BDA6490A89FE
:104BB0009207FCD588810889C007FCD08889C0B2DB
:104BC000704710B59F4800230824143004609020DB
:104BD000FFF7ECFF0020FFF7E9FF0020FFF7E6FFFB
:104BE0000020FFF7E3FFFF20FFF7E0FF43EA002389
:104BF000FF20FFF7DBFF9349184310310C6010BD15
:104C00009048082300B5143003600620FFF7CEFF5C
:104C10008C481030036000BD8A48082300B514306A
:104C200003600420FFF7C2FF86481030036000BD18
:104C30008448082300B5143003600520FFF7B6FF51
:104C4000FF20FFF7B3FF7F4910310B6000BD10B5A7
:104C500004467C480823143003600120FFF7A6FFB8
:104C60002046FFF7A3FF77481030036010BD00B562
:104C7000FFF7DEFFC007FBD100BD00B5FFF7C0FFA7
:104C8000FFF7F5FF6F48082314300360C720FFF7D4
:104C90008DFF6C48103003605DF804EBE7E710B55A
:104CA0000403FFF7ADFFFFF7E2FF66480823143067
:104CB00003602020FFF77AFFC4F30740FFF776FF79
:104CC000C4F30720FFF772FFE0B2FFF76FFF5D4804
:104CD00010300360BDE81040C9E770B5064659487A
:104CE0000825143014460B4605600320FFF75EFFCD
:104CF000C3F30740FFF75AFFC3F30720FFF756FF40
:104D0000D8B2FFF753FF002305E0FF20FFF74EFF67
:104D1000F0545B1C9BB2A342F7D34A4810300560A5
:104D200070BDF0B515460C460646FFF769FF4548CD
:104D30000827143007600220FFF738FFC4F307404C
:104D4000FFF734FFC4F30720FFF730FFE0B2FFF7AF
:104D50002DFF002304E0F05CFFF728FF5B1C9BB2F3
:104D6000AB42F8D3374810300760BDE8F0407EE72B
:104D7000F0B50746C8B2C0F580740E461546A2428B
:104D800000D814464FF4807C224631463846FFF75F
:104D9000C8FFA54208D0281B2744264485B2644694
:104DA000A542F1D82C46EFE7F0BD2DE9F04FC1F355
:104DB0000B0C0E0BCCF580540F4681461546A242D3
:104DC00000D81446DFF884804FF4805B31038A46B4
:104DD0005A461E48FFF781FF002007E00CEB000257
:104DE00018F80210FF2903D1401C80B2A042F5D36D
:104DF000A04221D23046FFF752FF0020414606E094
:104E000019F8002000EB0C03401CCA5480B2A042E9
:104E1000F6D351465A460D48FFF7AAFFA5420FD0D8
:104E2000281BA144274485B25C46761C4FF0000C39
:104E3000A542CBD82C46C9E7224639464846EBE77F
:104E4000BDE8F08F0008014000300140AF1F002096
:104E50002DE9F04F8346FE4887B00188491C89B28E
:104E60000180052973D3FB4C00250580208808B9F3
:104E7000FFF76CFA2088F84F8109F84EDFF8E093CD
:104E80004FF00108072978D2DFE801F0040412127C
:104E90001B3C4C00F04AF149F148FFF7FDF9CDF811
:104EA000008097F9003096F9002099F9001037E05A
:104EB00000231A4619468038009540B2FDF7F3F9F1
:104EC0005BE0E54AE549E648FFF7E6F9CDF8008002
:104ED000C2462078B84697F9003096F900204F4630
:104EE00099F9001040B2FDF7DEF9CDF800A0207866
:104EF00098F90030A0F27F1096F9002097F9001081
:104F00004042DAE70023A0F27F1040421A461946D9
:104F100040B20095FDF7C7F900231A4619460095DF
:104F20002078CAE7B0F5C47F12D297F9002096F92D
:104F30000030CDE90032A0F5C070CDF80880002225
:104F400041B299F900301046FDF764F915E01FE011
:104F500097F9003096F9006099F90020CDE9022612
:104F6000CDE90438A0F2871042B20720CDE9000253
:104F7000002319461846FDF7BDF92088401C80B271
:104F80002080B0F5C77F03D9B649258081F800B0ED
:104F900007B0BDE8F08F70B5AD4905460888401CE4
:104FA00080B208800A2821D3AA4C00260E802088CF
:104FB00030B9FFF7CBF9A84AA849A948FFF76CF91F
:104FC000A54890F90030A54890F90020A44890F930
:104FD0000010207840B2FDF777FA2088401C80B29C
:104FE0002080202802D39F482680057070BD2DE9BF
:104FF000F04F8346964887B00188491C89B20180EA
:1050000006296ED3934C0025058020880F21B0FB24
:10501000F1F1914FDFF84482DFF8449201264FF01E
:10502000070A082976D2DFE801F0041830485D76D7
:105030008AA140B10023401E00951A46194640B28D
:105040000195FDF7E2FACDE9006597F9003098F98E
:10505000002099F90010207886E04FF0040A0F280C
:1050600009D00023CDE9005AC0F11E0040B21A4613
:105070001946FDF7CAFACDE9006A2088C0F11D0083
:1050800085E000BFFDF7C1FAACE04FF0050A1E282D
:1050900008D00023CDE9005A1F381A46194640B2FD
:1050A000FDF7B3FACDE9006A207897F9003098F956
:1050B000002099F900101E3856E04FF0030A2D2801
:1050C00009D00023CDE9005AC0F13C0040B21A4695
:1050D0001946FDF79AFACDE9006A2088C0F13B0035
:1050E00055E089E04FF0020A3C2808D00023CDE9C2
:1050F000005A3D381A46194640B2FDF786FACDE906
:10510000006A207897F9003098F9002099F900108A
:105110003C3829E043E04FF0060A4B2809D0002331
:10512000CDE9005AC0F15A0040B21A461946FDF7BF
:105130006CFACDE9006A2088C0F1590027E05A28AE
:1051400008D00023CDE9005A5B381A46194640B210
:10515000FDF75BFACDE9006A207897F9003098F9FD
:10516000002099F900105A3840B28BE7692809D01D
:105170000023CDE90056C0F1780040B21A46194626
:10518000FDF743FA009601962088C0F1770040B2FF
:1051900097F9003098F9002099F9001072E72E492C
:1051A0002F4B7F2891F900202C4993F9003091F979
:1051B00000100FD203AEC0F17F0086E8260042B295
:1051C000CDF800A0CDE90123002319461846FDF7CC
:1051D00091F807E08DE826007F38002241B21046A2
:1051E000FDF718F82088401C80B22080862803D361
:1051F0001C49258081F800B0CAE6F0B5074614487E
:1052000087B00188491C89B201800A2959D3114C01
:1052100000260680208830B9FFF798F80E4A0F491B
:105220000F48FFF739F825880B4A0C490C48012331
:10523000082D19D291F9001092F900208DE80E0086
:1052400090F900300722114668B2FCF7E3FF2FE027
:1052500084000020860000208A00002089000020B1
:1052600088000020760000200F2D15D290F9000054
:105270000DF1080C92F9002091F900108CE80F0054
:10528000C5F10E0042B20720CDE9000203460146F7
:105290000020FDF72FF80BE0292D09D292F90030FC
:1052A00091F9002090F900100F3D68B2FDF7F1FC74
:1052B0002088401C80B22080292802D3FE48268006
:1052C000077007B0F0BDF8B50646FC480188491CD8
:1052D00089B201800F2922D3F94D00240480288847
:1052E00030B9FFF733F8F74AF749F848FEF7D4FF2B
:1052F000F448009490F90030F34890F90020F34806
:1053000090F90010287840B2FEF7A1F82888401CD8
:1053100080B228806C2802D3E7482C800670F8BD44
:10532000F0B50646E54887B00188491C89B201807E
:105330000529C6D3E24C0025058020880F2806D118
:10534000FFF704F8DF4AE049E048FEF7A5FF2088B0
:10535000DC4BDD4ADD494FF48E77072812D291F9F4
:1053600000100DF1080C93F9003092F900208CE840
:105370002E00C0F1070042B20723CDE90052002100
:10538000084636E00F280DD292F9002093F900303C
:105390008DE82C00C0F10E0091F90030002240B2DF
:1053A00011460FE04FF0010C17280ED292F90020A1
:1053B00093F900308DE80C1091F900300F3841B2AC
:1053C00000220846FCF726FF22E01E2814D291F99D
:1053D00000100DF1080E93F9003092F900208EE8CC
:1053E0000E10163842B20720CDE900020346002114
:1053F0000846FCF77FFF0BE0B84209D81E3893F946
:10540000003092F9002091F9001000B2FEF784FA02
:105410002088401C80B22080B84202D9A64825804E
:1054200006704EE770B5A54905460888401C80B255
:105430000880052821D3A24C00260E80208830B990
:10544000FEF784FF9F4AA049A048FEF725FF9D482C
:1054500090F900309C4890F900209C4890F9001089
:10546000208800B2FEF7E0FB2088401C80B220803C
:10547000CC2802D390482680057070BDFEB5074643
:105480008E480188491C89B20180052930D38C4C93
:105490000025058020884D26B0FBF6F106FB1100A3
:1054A00030B9FEF753FF874A87498848FEF7F4FE74
:1054B0002088874AB0FBF6F1824B02EBC101012242
:1054C00093F90030CDE900327F4A029592F900301D
:1054D0007E4A92F90020FEF796FC208840F2834134
:1054E000401C80B22080884202D373482580077018
:1054F000FEBD7CB5714905460888401C80B2088015
:105500000F2824D36E4C00260E80208830B9FEF779
:105510001DFF6C4A6C496D48FEF7BEFE69480121CB
:1055200090F90000CDE9000167486A4990F9003020
:10553000664890F900202088FEF71DFD2088401C59
:1055400080B22080982802D35B48268005707CBDFD
:105550002DE9F04F8346594887B00188491C89B22C
:1055600001800A297ED3564C00260680208828B167
:10557000172803D03F2801D057281DD1514A52493E
:105580005248FEF789FE2088B0B9534A111F081F00
:10559000FEF782FE504A521C111F081FFEF77CFEC8
:1055A0004D4A921C111F081FFEF776FE4A4AD21C74
:1055B000111F081FFEF770FEFEF7C8FE20880127A6
:1055C000464BA146172875D2434C00EB4000083CDF
:1055D000800094F9081094F90420CDE90321CDE965
:1055E00005761D189A46697895F8028094F900C0EE
:1055F0000B094FEA1812CDE90032CDF808C01AF8AD
:10560000000008F00F02030901F00F0100F00F0085
:10561000FDF72DFE94F9090094F90510CDE903106A
:10562000CDE905766A79297994F901C01309080949
:105630008DE80910E87802F00F02030901F00F016C
:1056400000F00F00FDF713FE94F90A0094F906101C
:10565000CDE90310CDE905762A7A94F902C0130941
:10566000E97900E0A1E008098DE80910A87902F0C5
:105670000F02030901F00F0100F00F00FDF7F7FD25
:1056800094F90B0094F90710CDE90310CDE90576E4
:10569000A97A94F90330E87A0C090209CDE90042AD
:1056A00002936C7A00F00F02230901F00F0104F05D
:1056B0000F006BE014E00000760000208400002062
:1056C000860000208A000020890000208800002039
:1056D00064690008DC690008AC0000203C6F000829
:1056E000A72855D25F2800EB400408D2A0F117018B
:1056F000CA1701EB52714FEAE10CCF3407E0A0F179
:105700005F01CA1701EB52714FEAE10C093CED4908
:10571000ED4AEE4DBCF1020F10D0BCF1050F0DD0DB
:10572000BCF1080F0AD05F2891F9000092F900102F
:1057300016D2CDE90310CDE9057615E091F9000008
:1057400092F90010CDE900101819029790F9022083
:1057500090F90110185795F90030FCF75BFD17E040
:10576000CDE9040603910696181995F90050827840
:10577000417817090809CDE900070295185D02F084
:105780000F02030901F00F0100F00F00FDF76FFD9C
:10579000B9F80010491C89B2A9F80010A72904D350
:1057A000CB49A9F8006081F800B025E52DE9F04F5C
:1057B000924699460322B1FBF2F302FB131744B25F
:1057C00087B0381D4FFA80F80122DDF840B0CDE9EE
:1057D00004B2C7F1020045B2C7F1030046B2CDE9F9
:1057E0000084CDE902A92846034622463146FCF74B
:1057F00081FDCDE900540120CDE904B0CDE902A935
:105800002946304643462246FCF774FD0120CDE987
:1058100004B07F1D7DB2CDE90054CDE902A9304628
:10582000434622462946FCF765FDCDE90084012068
:10583000CDE904B0CDE902A92B46314622461846EF
:10584000FCF758FDD8E42DE9F04F8346A14887B016
:105850000188491C89B201800A2976D3DFF8789241
:1058600000250580B9F80000984E974CDFF8548267
:105870000F27F0B9FEF76AFD424621463046FEF793
:105880000BFD3078401C40B230700F2800DD3770BF
:105890002078401C40B220700F2800DD277098F857
:1058A0000010491C49B288F800100F2901DD88F862
:1058B0000070B9F800204FF4847AC02A37D202F081
:1058C000070190094FF0010304D0012809D00228F4
:1058D00065D118E0D00896F90020CDE9022542B242
:1058E0000AE0A7EBD20094F9002096F90040CDE938
:1058F000024242B2C1F10701CDE90453CDE90012E1
:105900000723002010E0F02000EBD20098F90020DF
:1059100094F9004096F90060CDE9042342B2039463
:105920008DE8460007230020FCF7E4FC37E05245F1
:1059300035D21820A2F1C00393FBF0F0032128B167
:1059400001280FD002282AD11BE035E093FBF1F2A9
:1059500001FB1231D0B2C1F1020198F90020C9B2A5
:1059600000920BE0D83A92FBF1F301FB1321C3F153
:105970000700C1F10201C0B2C9B2009594F900302C
:105980000AE0F03A92FBF1F301FB1321D8B2C1F126
:105990000201C9B2002300950022FFF707FFB9F802
:1059A0000010491C89B2A9F80010514504D3484998
:1059B000A9F8005081F800B01EE445480078072897
:1059C00015D2DFE800F00406090C0E1012000120C9
:1059D000BEE50220FFF73CBA0320FFF708BB042016
:1059E00071E4052009E406209AE400201AE57047D6
:1059F0002DE9F04137480188491C89B201800A2904
:105A00003CD30026354C364D06802088297800038B
:105A100001EB410100EB01214FF440723148C91CF8
:105A2000FFF75BF9FEF7DEFC28782F4F401CC0B271
:105A300028703978884221D32E7020880322401C98
:105A400080B2208001032948FFF747F9274DDFF88E
:105A5000A080A87838702188B8F8000081420DD362
:105A60002680032200212846FFF737F9A8783870EE
:105A70002878697800EB0120A8F80000BDE8F081E3
:105A80001CB514480188491C89B201801E2917D30E
:105A9000002101800A200B460A46CDE900010121C0
:105AA000FEF7E6FDFEF7BEFDFEF710FD012803D16F
:105AB000FEF737FDFEF750FDBDE81C40FEF78EBD3A
:105AC0001CBD00008A000020890000208800002002
:105AD0007600002084000020860000207C0000204A
