:020000040800F2
:10000000504D0020AD02000871310008412C00085D
:100010006F310008C5220008654E0008000000008E
:10002000000000000000000000000000D33B0008BA
:10003000E528000800000000313300088145000871
:10004000C7020008C7020008C7020008C70200086C
:10005000C7020008C7020008C7020008C70200085C
:10006000C7020008C7020008C7020008C70200084C
:10007000C7020008C7020008C7020008C70200083C
:10008000C7020008C7020008C7020008C70200082C
:10009000814D0008C7020008C7020008C702000817
:1000A000C702000885460008C7020008C70200080A
:1000B000BD46000841470008DD470008C7020008A8
:1000C000C7020008C7020008C7020008C7020008EC
:1000D000C7020008C7020008C7020008C7020008DC
:1000E000C7020008C7020008B14B000800F002F880
:1000F00000F0B2F80AA090E8000C82448344AAF110
:100100000107DA4501D100F0A7F8AFF2090EBAE80D
:100110000F0013F0010F18BFFB1A43F0010318473B
:10012000C0F80000E0F800000A444FF0000C10F89E
:10013000013B13F0070408BF10F8014B1D1108BF65
:1001400010F8015B641E05D010F8016B641E01F805
:10015000016BF9D113F0080F1EBF10F8014BAD1C55
:100160000C1B09D16D1E58BF01F801CBFAD505E073
:1001700014F8016B01F8016B6D1EF9D59142D6D3CD
:10018000704700000023002400250026103A28BFF5
:1001900078C1FBD8520728BF30C148BF0B607047F9
:1001A0006E2900F02982702900F06B8366290EF019
:1001B000AC8165290EF0A98167290EF0A68161291D
:1001C000AFF3008003681B0A28BF41F08001692952
:1001D00000F0D681642900F0D381752900F0D08128
:1001E0006F2900F0F982782900F03783E92900F0BF
:1001F0009382E42900F09082F52900F08D82EF29A6
:1002000000F0F682F82900F036830368DB0928BF86
:1002100041F08001632900F0BC86732900F0C1869B
:10022000E32900F0CC86F32900F0D1860020704746
:100230001FB500F082F800F021FF0400002000212B
:100240000CF0EEFF401C6060002000210CF0D2FF9B
:10025000E0601FBD10B510BD00F0E2FE1146FFF7D3
:10026000E7FF08F025FE00F0BBFF03B4FFF7F2FF45
:1002700003BC00F0BFFF00000B49D1F800C04A6882
:100280005CF8043B1068184442F8040B8C4528BF06
:10029000A1F1DC0C8A4228BFA1F1DC02C1F800C048
:1002A0004A6020F000407047E84600200948804737
:1002B00009480047FEE7FEE7FEE7FEE7FEE7FEE748
:1002C000FEE7FEE7FEE7FEE704480549054A064B60
:1002D0007047000035460008ED0000085047002038
:1002E000504D002050490020504900201CB50C46BC
:1002F000064B7B4469460090204600F096F9044680
:100300000020694600F0A4F920461CBD5B030000F4
:100310000B4910B5A1F17C020A4CC2E93712372112
:1003200006E000EB104342F82130074B00FB03408E
:100330000B1EA1F10101F4DC10BD0120E8E7000073
:1003400088460020E119D666CD0D010010B5431C8A
:1003500002E010F8011B71B18107FAD14FF00132B0
:1003600002C88C1A8C4314EAC211F9D0C01A0A06CA
:1003700003D0C01E10BDC01A10BD0A0401D0801EDB
:1003800010BD0902FCD0401E10BD40EA010370B54B
:100390009B072ED14FF00136042A2AD308C810C972
:1003A0009D1B9D43121F15EAC61517D0D8B2E1B2A6
:1003B000401A50EA056110D198B2A1B2401A50EA31
:1003C00005410AD123F07F4024F07F41401A50EAD2
:1003D000052102D1180EA0EB146070BDA342DBD042
:1003E00018BA21BA884201D9012070BD4FF0FF3000
:1003F00070BD0AB9002070BD10F8013B11F8014B27
:1004000063B1A3420AD1521E08D010F8013B11F883
:10041000014B1BB1A34201D1521EEDD1181B70BD7F
:100420004FF0013C50F8042B51F8043B9A4221D183
:10043000A2EB0C03934313EACC1317D150F8042B0F
:1004400051F8043B9A4215D1A2EB0C03934313EAF3
:10045000CC130BD150F8042B51F8043B9A4209D12C
:10046000A2EB0C03934313EACC13DBD04FF0000054
:10047000704700BFD01A01BAB1FA81F101F018013A
:1004800022FA01F0CB40C1F12001DBB2C0B2C01AA8
:100490002CFA01F3D11A914311EAC311E6D1704746
:1004A00070477047704710B500F0BAFA006810BD89
:1004B00010B5044600F0B4FA046010BD70B50446EF
:1004C00085690068C10601D5302600E02026C007F6
:1004D00007D070BDD4E9012130469047206A401C06
:1004E00020626D1EF6D570BD70B504468569007832
:1004F000C00707D170BDD4E9012120209047206AB0
:10050000401C20626D1EF6D570BD09684A0501D5F4
:1005100040B27047C905FCD500B2704709684A056A
:1005200001D5C0B27047C905FCD580B2704770B51F
:100530000C460546012A05D02878800600D5EA69D0
:10054000002302E0012305E05B1C934202D2E05C41
:100550000028F9D1A869E618C01AA861286A1844C9
:1005600028622846FFF7AAFF04E0D5E9012114F824
:10057000010B9047B442F8D32846FFF7B5FF70BD92
:100580002DE9F0410646002410687529314616A56C
:1005900010D0FFF7BAFF002802DA404213A507E0A7
:1005A00031688A0701D512A502E0490704D511A5D3
:1005B000012401E0FFF7B2FF00210A2206F124071F
:1005C00009E0B0FBF2FCB0FBF2F302FB1C003030A0
:1005D00078541846491C0028F3D123462A46304651
:1005E000BDE8F04100F065BA000000002D000000F9
:1005F0002B0000002000000011680268006A53050B
:1006000001D508700AE0D30501D5088006E013067D
:1006100003D5C217C1E9000200E00860012070475D
:1006200001694A1C02610878704700B58FB0CDE9B6
:1006300001310021059105497944CDE903101146A6
:10064000684600F029F90FB000BD0000E5FFFFFF8C
:100650000A6802F8010B0A60704700002DE9FF5F8D
:1006600015468A460446DFF8AC80F8440027D8E9EE
:1006700000103E46CDE9001010E03AF816106A4628
:1006800002A800F0A8FC411C07D02178890603D5F8
:10069000E269391891420DD80744761C207880060B
:1006A00002D5E069B84205DDAE42E6DB3AF8160055
:1006B0000028E2D1A069C01BA0612046FFF7FEFE22
:1006C000D8E90010CDE90010002017E03AF8181022
:1006D0006A4602A800F07FFCB0F1FF3F81460BD0D4
:1006E00000250DF1080B05E0D4E901211BF80500F8
:1006F00090476D1C4D45F7D308F10100B04280468C
:10070000E4DB206A384420622046FFF7EDFEBDE8B6
:10071000FF9F0000D2F000002DE9F0418046D21D7D
:1007200022F007020025D2E90002F52915A614D00F
:10073000011E72F1000106DA0023D0EB030063EB27
:10074000020211A608E0D8F800108B0701D50FA609
:1007500002E0490701D50EA601251146002408F143
:10076000240704E000F060F930323A55641C50EA86
:100770000102F7D12B46324621464046BDE8F04102
:1007800000F097B9000000002D0000002B000000D1
:100790002000000030B4002100F1240408E002F041
:1007A0000705D208303542EA4372DB086554491C1C
:1007B00052EA0305F3D10468002310A2250708D5E7
:1007C00004F020040C4304D0C46901230CA2641E6D
:1007D000C46130BC00F06DB910B504462146106804
:1007E000FFF79CFE02462046BDE810400023D1E7FB
:1007F000D21D22F00701D1E90023CBE70000000061
:1008000030000000F0B40D460188090502D5214CE6
:100810007C4402E01F4C7C440E34002100F124068D
:1008200008E002F00F071209E75D42EA03721B09B4
:100830007754491C52EA0307F3D1027800231207C8
:1008400004D5702D06D009B1022311342246F0BC24
:1008500000F02FB901231034F8E770B504460D46B7
:1008600021461068FFF75AFE024629462046BDE899
:1008700070400023C6E7D21D22F00703D3E900230E
:10088000C0E70368126843F0200303600823C361D4
:100890000023B7E734EF00002DE9F05F89460446F6
:1008A0004FF0000ADFF874B1FB44C0F820A02046E6
:1008B000E1688847002874D0252806D0D4E90121B2
:1008C0009047206A401C2062F1E700265F462046E0
:1008D000E16888472028054607DB312D05D27819C5
:1008E00010F8200C08B10643F1E7B00701D526F057
:1008F0000406C4F81CA00027C4F818A02A2D09D0AB
:10090000284604F021FF38B304EB8708303DC8F8CF
:10091000185019E059F8041B204604EB8702916136
:10092000E1688847012F054618D1E069002820DAE0
:1009300026F020061DE0D8F8180000EB800005EB3B
:1009400040003038C8F818002046E168884705465E
:1009500004F0FAFE0028EED1012F0AD02E2D08D186
:100960002046E16888477F1C0546022F46F0200696
:10097000C4DBA069002803DA404246F00106A0610A
:10098000F00701D026F010066C2D0BD0682D09D091
:100990004C2D39D06A2D35D0742D35D07A2D33D0E9
:1009A00016E038E0E1682F4620468847B842054601
:1009B00009D16C2F26D04FF48060E16806432046B1
:1009C0008847054604E06C2F1AD04FF48070064328
:1009D0000DB3A5F14100192802D8203546F4006670
:1009E0004A462946204626604E46FFF7D9FB80B18D
:1009F00001280BD0F61D26F0070000F1080956E784
:100A00004020E4E78020D8E70020D6E706F104097B
:100A10004DE7284652E7206ABDE8F09FC4EE00008B
:100A200000487047F046002030B5B0F10A024FEAA6
:100A3000900E71F100034EEA817EB0EB0E0061EB87
:100A400091014FEA101E4EEA017E10EB0E0041EBC1
:100A500011114FEA102E4EEA016E10EB0E0041EB21
:100A600011214FEA104E4EEA014E10EB0E0041EB01
:100A70001141401841F100014FEAD00040EA4170B5
:100A80004FEAD10110EB80054FEA810444EA9074EB
:100A900044EB01046D1944EB0404521BA3414FF0D5
:100AA000000348BF0A3200D530BD401C41F10001AF
:100AB00030BD2DE9F0470D4699469246044600F1B7
:100AC00024080168880604D5E06921F0100121603E
:100AD00000E00120A84201DD471B00E00027A169DA
:100AE0007A1902EB0900081AA0612078C00602D426
:100AF0002046FFF7E3FC002608E0D4E901211AF8BC
:100B000006009047206A401C761C20624E45F4DBAC
:100B10002078C0060AD52046FFF7D0FC06E0D4E9CD
:100B2000012130209047206A401C2062381EA7F126
:100B30000107F4DC07E0D4E9012118F8050090472B
:100B4000206A401C2062281EA5F10105F3DC204626
:100B5000FFF7CAFC2078000602D50220BDE8F08726
:100B60000120FBE770472DE9FF4F0C461E464FF072
:100B7000FF378BB0D2E90001DDF860800A908A4629
:100B8000C1F30A5505B93D46002108464FF0000063
:100B9000BAF1000F00F4400005DA00EB80004FF4DA
:100BA000400101EA50004FEA9059B9F1010F00DD10
:100BB000B9460A9850EA4A000ED044F61050A5F201
:100BC000FF3545432F14B8F1000F1ED07542291E82
:100BD0001EDDC9F100021CE0B8F1010F4FF000006A
:100BE00001D0302103E0F24305E02154401CB04223
:100BF000FBDB30460022002121540B99C1F808800C
:100C0000C1E900200FB0BDE8F08FBD1B6D1CDEE711
:100C10004A4600DA694206A800F074FA06AB93E887
:100C2000070003AB83E8070050460A9900F0E8FA92
:100C30008DE80700A0F500501F3800900398002DA4
:100C400009DD42F21F014A46084403A903906846A1
:100C500000F047FD08E0A0F500504A461F3803A900
:100C60000390684600F051FD8DE807000004000C79
:100C700003D04FF0FF30410800E01046B8F1000FFC
:100C800003D00022009215461EE0751E05D4FFF722
:100C9000CBFE303262556D1EF9D5B34601220843B2
:100CA00002D000227F1C04E02078302801D10022ED
:100CB0007F1E002A099786D01DE0112D07DAFFF765
:100CC000B3FE303262556D1C50EA0102F5D1084383
:100CD00002D00098C8B10EE00021681E05E0235C38
:100CE000625C63542254401E491C8142F7DBAB46D0
:100CF000A81B401E0990002004F80B000B98099ACD
:100D0000C0F80880C0E9002B7CE711264FF00008EE
:100D100059E72DE9F04F88460446D21D22F007011D
:100D200091B0D1E90001CDE90A0104F0D1F9024600
:100D30000B98C00F01D02D2007E02068810701D556
:100D40002B2002E0202101EAC000032A099001D0F3
:100D5000072A05DB03464146204600F093F90BE1E4
:100D60002078800601D5E06900E00620B8F1650F23
:100D7000814606D0B8F1660F18D0B8F1670F70D170
:100D800031E00020B9F1110F009001DB112301E0E7
:100D900009F101030AAA01A90CA8FFF7E4FEDDE9A5
:100DA0000C70002609F10105834647E001204B46FF
:100DB00000904FF000470AAA01A90CA8FFF7D3FE44
:100DC000DDE90DB00C995D46002610B909F101006E
:100DD0000D18B9EB050003D4C0F1FF3609F1010588
:100DE000A5EB09002BE0B9F1010F01DA4FF0010981
:100DF0000020B9F1110F0090484601DD112300E0F9
:100E000003460AAA01A90CA8FFF7ADFEDDE90C70A4
:100E10004D4600268346207800070AD4AB4500DA09
:100E20005D4601A8012D04DD411911F8011C30298E
:100E300007D04F4502DA17F1040F04DA0120824689
:100E40000FE06D1EEEE7002F02DCED1B3E4403E0D9
:100E5000781CA84200DD7D1CB81B00F1010A4FF090
:100E600000472078000703D4AA4501DB4FF0FF3A82
:100E70000021B7F1004F0DF143088DF8431024D045
:100E800002202B23002F01DA7F422D230A21021E8C
:100E9000A0F1010000DC5FB197FBF1FC97FBF1F2E0
:100EA00001FB1C7C17460CF1300C08F801CDEEE775
:100EB000A8F1010003702188090501D5452100E052
:100EC0006521A0F1010800F8011C09980FA9A1EB08
:100ED0000807FF1D00B10120411901EBEA70A1696B
:100EE0003844081A401EA0612078C00602D420466B
:100EF000FFF7E4FA099828B1D4E901219047206A64
:100F0000401C20622078C00622D52046FFF7D6FA82
:100F10001EE0002E04DBB34502DD01A8805D00E089
:100F20003020D4E901219047206A401C2062761CC1
:100F3000AAF101005FEA000A0AD100F09FF8C06838
:100F40000168405CD4E901219047206A401C20627E
:100F5000281EA5F10105DCDC07E0D4E9012118F821
:100F6000010B9047206A401C2062381EA7F1010740
:100F7000F3DC2046FFF7B8FA032011B043E610B5C2
:100F8000436913B1AFF3008001E0FFF7D0FA01200D
:100F900010BD127800F124010A7000224A7001226B
:100FA000EDE711684FF0FF32E9E710B5436913B17F
:100FB000AFF3008001E0FFF751FB012010BD128864
:100FC00000F1240182840022C2840122EDE711682D
:100FD0004FF0FF32E9E770B516460C46054600F0C3
:100FE00045F8036893F80101012806D0FF2C0FD8BB
:100FF000185D68B101202C7070BDD3F8070132462E
:10100000214603F2071303442846BDE87040184701
:101010004FF0FF3070BD000000487047F0460020E0
:101020007546FFF7F9FFAE4605006946534620F0C6
:101030000700854618B020B5FFF746F9BDE8204007
:101040004FF000064FF000074FF000084FF0000B84
:1010500021F00701AC46ACE8C009ACE8C009ACE837
:10106000C009ACE8C0098D467047000010B500F01B
:1010700005F8001D10BD00BFA9C100000048704761
:10108000104700202DE9F0411F4604460326016861
:10109000072A01F4006004DB08B116A505E016A5D7
:1010A00003E008B115A500E015A521F010002060AF
:1010B000A069C01EA0610FB1401EA0612046FFF7CD
:1010C000FDF94FB1D4E9012138469047206A401C10
:1010D0002062C01C206206E0206AFAE7D4E9012100
:1010E00015F8010B9047761EF8D22046FFF7FCF961
:1010F000BDE8F0814E414E006E616E00494E4600E3
:10110000696E66002DE9F047814616468AB033487D
:1011100078440DC88DE80D0030487844801C03AC3D
:101120000DC884E80D0041F69B300844372190FB40
:10113000F1F290FBF1F5A5F1800501FB12041B3CD7
:1011400002D56442012000E00020DFF890A0804634
:101150000027FA44AAF1BE0A0DE0E00709D03246A2
:10116000684607EB47010AEB810100F0CEFA8DE8F3
:10117000070064107F1C002CEFD1184F7F44AC3F58
:1011800018E0E80714D007EB04100DF1180A90E8F6
:101190000E008AE80E00C068F04201D1981908904C
:1011A000324606A903A800F0B0FA03AB83E80700B3
:1011B0006D10641C002DE4D132466946B8F1000F71
:1011C00003A802D000F08DFA01E000F09EFAC9E910
:1011D0000001C9F808200AB0BDE8F08750E8000017
:1011E00010B50446AFF300802046BDE81040FFF77D
:1011F0003CB8704701491820ABBEFEE7260002004C
:101200005FEA400C08BF91F0000F4FEA8C234FEAD1
:10121000C12243EA51514FEA1C5018BF00F5F0407B
:101220004FEA300018BF41F000415FEA6C5C00F00B
:101230002980BCF1FF3F08BF40F080407047130C8D
:1012400006BF12044FF0100C4FF0000C130E04BF39
:1012500012020CF1080C130F04BF12010CF1040C64
:10126000930F04BF92000CF1020CD30F04BF520085
:101270000CF1010C11464FF00002A0F11F00A0EB91
:101280000C00704711F0004F08BF704731F000416B
:101290003FF4D5AF0B0C06BF09044FF0100C4FF014
:1012A000000C0B0E04BF09020CF1080C0B0F04BF5D
:1012B00009010CF1040C8B0F04BF89000CF1020C26
:1012C000CB0F04BF49000CF1010CCCF12003A0EBC3
:1012D0000C0022FA03F302FA0CF241EA030100F1D6
:1012E0000100704720F07F4C80EA030023F07F4725
:1012F000ACEB070303F57C5300F0004003F1FF0360
:101300002DE980494FEA154B09B44FEA144325EA09
:101310000B4E24EA03480FF2042606EB1327490874
:101320003E785FEA320203FB0667C7F5000707FB5A
:1013300006F64FEA54374FEAD64606F1020607FB97
:10134000066CCCF1005C4FEA1C472CEA074C07FB0B
:1013500006F40CFB06F504EB15464FEA961634BF6F
:1013600000204FF000404FEAD13706FB07FC4FEA60
:101370001C4C0CFB0BF7D21B03FB0CF761EB0701BA
:101380000CFB0EF7B0EB074072EB17420CFB08F7B3
:1013900034BFA2EB0742B2EB074261EB17414FEAC1
:1013A0000C444FEA910706FB07FC4FEA1C4C0CFB70
:1013B0000BF7B0EBC74072EB573203FB0CF734BFAF
:1013C000A2EBC742B2EBC74261EB57310CFB0EF701
:1013D000B0EBC70072EB57720CFB08F734BFA2EBFF
:1013E000C702B2EBC70261EB5771039F4FEA8161FD
:1013F00041EA921104EBCC044FEAD1374FEA826202
:1014000006FB07FC42EA90124FEA80604FEA1C4C50
:101410000CFB0BF7D21B03FB0CF761EB07010CFB7A
:101420000EF7B0EB074072EB17420CFB08F734BF26
:10143000A2EB0742B2EB074261EB17414FEA8C5532
:101440004FEA910704EB9C2406FB07FC4FEA1C4C77
:101450000CFB0BF7B0EBC74072EB573203FB0CF7FA
:1014600034BFA2EBC742B2EBC74261EB57310CFB72
:101470000EF7B0EBC70072EB57720CFB08F734BFE6
:10148000A2EBC702B2EBC70261EB577115EB4C251B
:101490004FEA816141EA92114FEA82624FEAD13705
:1014A00042EA901206FB07FC44F100044FEA806018
:1014B0004FEA1C4C0CFB0BF7D21B03FB0CF761EB48
:1014C00007010CFB0EF7B0EB074072EB17420CFB69
:1014D00008F734BFA2EB0742B2EB074261EB1741BA
:1014E00015EB1C154FEA813141EA92414FEA8232F5
:1014F00042EA90424FEA80304FEA0C7644F1000411
:1015000048EA03434EEA0B484FF0000EB2EB080CDA
:1015100071EB030724BF624639464EEB0E0E4FF0C7
:10152000000B0018524149414BEB0B0BB2EB080C7E
:1015300071EB03077BF1000B24BF624639464EEB8B
:101540000E0E4FF0000B0018524149414BEB0B0BB4
:10155000B2EB080C71EB03077BF1000B24BF624672
:1015600039464EEB0E0E51EA020718BF46F001064F
:1015700016EB0E7655F1000254F1000103D5BDE8DB
:101580008901BDE80088BDE88901BDE80048B619B9
:10159000524141EB0101A3F10103704780807F7E3E
:1015A0007D7C7B7A797877767675747372717170D9
:1015B0006F6E6E6D6C6C6B6A6A696868676666658B
:1015C0006464636362616160605F5F5E5E5D5D5C19
:1015D0005C5B5B5A5A59595858575756565555558A
:1015E0005454535352525251515050504F4F4F4EEA
:1015F0004E4D4D4D4C4C4C4B4B4B4A4A4A49494938
:101600004848484747474746464645454544444479
:10161000444343434342424242414141002B26D48A
:10162000770021D01CB54FEA370703B44FF0100004
:101630004FF010014FF000000FBCBDE810400BF15F
:10164000010BBBF1010F08BF5FEA170722BF12F1C0
:10165000010211F101014FF0004143F1000300F0DC
:10166000004043EA00007047F9D35708DAE746EA3A
:10167000064613F1400F4FEA16461FDD13F1200F07
:10168000DFBF16430A46002120335B42C8D0C3F1B6
:10169000200746EA064602FA07F74FEA164646EAE8
:1016A0000706C3F1200722FA03F201FA07F721FA2D
:1016B00003F14FF0000342EA0702B1E746EA0206EF
:1016C00046EA06464FEA164646EA0106BCBF46EA27
:1016D0000646360C4FF000034FF000024FF00001B9
:1016E0009EE72DE9C048934630B491E8380007C81A
:1016F00031EA400C48BF34EA430C03D5FFF7F2FD52
:10170000FFF78CFFF0BCBDE800882DE9C048934688
:1017100030B491E8380007C810F0804F08BF13F0CC
:10172000804F03D100F005F8FFF778FFF0BCBDE86B
:10173000008820F07F4780EA030023F07F4C07EB0E
:101740000C03A3F57C5300F00040A3F1FE0392F0DC
:10175000000F00F0B38095F0000F00F077802DE9C6
:1017600001494FEA11404FEA144621EA004800FBC4
:1017700006FC24EA064708FB06F607FB08F800FB10
:1017800007F718EB06484CEB164C4FEA124B18EBD8
:1017900007484FEA15464CEB174022EA0B4E0BFB6D
:1017A00006FC25EA06470EFB06F607FB0EFE0BFBC2
:1017B00007F71EEB064E4CEB164C4FF000061EEBE7
:1017C000074E4CEB174B18EB0B0840F1000018EBE1
:1017D0000E0B58EB000840F100008F1A4FF000018B
:1017E0003CBFC943661B14BFB5EB040C00213CBFD2
:1017F000C943F61B4FEA17444EEA8E0E27EA04450A
:101800004FEA1C4704FB07622CEA074C05FB07F76D
:101810000CFB05F604FB0CFC16EB074642EB1742EB
:1018200016EB0C4642EB1C421BEB060658EB020281
:10183000414146EA9E0601D5BDE80189B6195241EB
:1018400041EB0101A3F10103BDE801894FEA144511
:101850004FEA114724EA054621EA074C05FB07F445
:1018600006FB07F70CFB06F105FB0CFC11EB07412F
:1018700044EB17444FEA124711EB0C4144EB1C4474
:1018800022EA074C05FB07F206FB07F70CFB06F6FE
:1018900005FB0CFC16EB074642EB174216EB0C4619
:1018A00042EB1C456A1854F1000148BF7047B61955
:1018B000524141EB0101A3F10103704795F0000F84
:1018C00037D04FEA11424FEA144721EA024624EA90
:1018D000074C02FB07F106FB07F70CFB06F402FBC3
:1018E0000CFC14EB074441EB17414FEA154714EB8E
:1018F0000C4441EB1C4125EA074C02FB07F506FBB3
:1019000007F70CFB06F602FB0CFC16EB074645EB53
:10191000174516EB0C4645EB1C42121951F100011C
:1019200048BF7047B619524141EB0101A3F10103D1
:1019300070474FEA14454FEA114724EA054621EA69
:10194000074C05FB07F106FB07F70CFB06F24FF00F
:10195000000605FB0CFC12EB074241EB174112EBB2
:101960000C4251EB1C4148BF7047921841EB0101FA
:10197000A3F1010370470029816802D041F0010101
:1019800001E021F001018160704700000D4910B5B0
:10199000884202D1012144150AE00B49884202D154
:1019A0000121041504E0094988420AD10121CC0330
:1019B000204601F087FD2046BDE81040002101F0DF
:1019C00081BD10BD0024014000280140003C0140C1
:1019D000014600208968490700D501207047C06C86
:1019E00080B270470246002012680A4200D00120EF
:1019F0007047014600208968090700D5012070471B
:101A000010B542680E4B0C791A400B6842EA04226A
:101A10001343436083680B4A1340D1E902422243D7
:101A20004C7943EA44031A438260C26A097C22F477
:101A30007002491EC9B242EA0151C16210BD0000E4
:101A4000FFFEF0FFFDF7F1FF70B5072409290AD961
:101A5000C568A1F10A0606EB4606B440A543B340AB
:101A60001D43C56007E0056901EB4106B440A5438D
:101A7000B3401D4305611F23072A09D2446B521E40
:101A800002EB820293409C4391400C43446370BD3F
:101A90000D2A09D2046BD21F02EB820293409C43B1
:101AA00091400C43046370BDC46A0D3A02EB82029C
:101AB00093409C4391400C43C46270BD816841F0E7
:101AC0000801816070470029816802D041F4A001BB
:101AD00001E021F4A00181607047816841F00401B8
:101AE00081607047002242283CD00EDCA0F130001B
:101AF000122840D2DFE800F03F222426282A2C2E8C
:101B000030323F3F3F3F3F3F3F3462282AD00CDC1A
:101B100045282DD004DC432826D044282BD125E0AD
:101B2000462827D0612826D11AE063281CD06428D3
:101B30001CD065281CD066281DD11BE001221AE0AC
:101B4000022218E0032216E0042214E0052212E02B
:101B5000062210E007220EE008220CE009220AE02B
:101B60000A2208E00B2206E00C2204E00D2202E02B
:101B70000E2200E00F22100142293DD00EDCA1F11F
:101B80003001122925D2DFE801F0242527292B2D49
:101B90002F313335242424242424241862292BD0E3
:101BA0000DDC45292ED004DC432927D0442910D14F
:101BB00026E046290BD061290BD10A3008E06329C1
:101BC0001CD064291CD065291CD0662901D10F3096
:101BD000C0B27047401CFBE7801CF9E7C01CF7E768
:101BE000001DF5E7401DF3E7801DF1E7C01DEFE79D
:101BF0000830EDE70930EBE70B30E9E70C30E7E7B9
:101C00000D30E5E70E30E3E710B5C2074FF4807101
:101C100001D0094A01E0084A121D1160074A8407F1
:101C20004FF4007301D5136100E05361400701D503
:101C3000116110BD516110BD10080140001001403C
:101C40002DE9FF4F87B04FF0000BDDE9147ADDE995
:101C50001841DDE91665099ABAEB020000D5404249
:101C600040B20690C2F107004FFA80F9CAF10700AE
:101C70004FFA80F811BB27E01A98CDE902650028D9
:101C80004FF00100CDE9044009D00799CDE9007873
:101C900001EB0B0040B203464A46089908E0079959
:101CA000CDE9007A01EB0B00DDE9081243B21846DA
:101CB00001F03FFB0BF101004FFA80FB06998B45C9
:101CC000DADD0BB0BDE8F08F1A990020F1B3009770
:101CD0000590CDE90354CDE90186DDE9073182465F
:101CE0004A46184601F025FBCDF814A00097CDE92F
:101CF0000354CDE901860A9B4A461846089901F02B
:101D000018FBCDE90354CDE9019608980090DDE970
:101D100007014A460A9B06F050FD0097CDE901965F
:101D2000CDE903544A4639460A9B079806F045FD1B
:101D3000CDE90354CDE9018608980090DDE907015B
:101D400042460A9B06F039FD009700E006E0CDE927
:101D50000186CDE9035442460A9B45E00097059071
:101D6000CDE901A6CDE90354DDE9073180461846E7
:101D700001F0DFFACDF814800097CDE90354CDE9E6
:101D800001A60DF1200898E80E00184601F0D1FADE
:101D90000998CDE90106CDE9035408980DF11C0816
:101DA000009098E80F0006F008FD09980097CDE92B
:101DB0000106CDE90354DDE909233946079806F009
:101DC000FCFCCDE90354CDE901A608980090DDE9BB
:101DD000070152460A9B06F0F0FC0097CDE9035438
:101DE000CDE901A60A9B52463946079806F0E5FC64
:101DF00067E700002DE9F04F0E4615466C2190FB79
:101E0000F1F289B001FB120A1C460027DDF8489068
:101E100004F00AFA01204FF00708BAF1060F7CDA45
:101E2000B9F1000F7AD00021CDF80080CDE905018D
:101E3000CDE90354CDE90186062201231146002095
:101E4000FFF7FEFEB9F1000F69D000210120CDE9B6
:101E50000501CAF107004FFA80FB0721CAF106000D
:101E6000CDE9001B42B20AF10100029643B2CDE96E
:101E700003541746984606215046FFF7E1FEB9F194
:101E8000000F78D000210120CDE905010720009046
:101E9000CDE90106CDE903540622434611465046DA
:101EA000FFF7CEFEB9F1000F67D000210120CDE988
:101EB00005010721CDE9001B0296CDE90354034635
:101EC0003A4606210020FFF7BBFEB9F1000F56D0BD
:101ED00000210120CDE905010721CDF800B0CDE9B1
:101EE0000116CDE903540346394606220020FFF7C8
:101EF000A7FEB9F1000F44D000210120CDE9050172
:101F0000CDF800B0CDE901B6CDE903543A4611460B
:101F100043465046FFF794FE02E038E027E028E011
:101F2000B9F1000F2FD000210120CDE905010721D3
:101F3000CDF800B0CDE90116CDE90354394643464A
:101F400006225046FFF77CFEB9F1000F1DD000219C
:101F50000120CDE90501CDF800B0CDE901B6CDE90C
:101F600003543A46012311460020A4E103E0012175
:101F70005AE701216AE7012185E7012196E701215E
:101F8000A7E70121B9E70121CEE70121E0E7CB492D
:101F9000BAF11E0F4ADABAF1060F07D107EB470371
:101FA0005B00CB557F1C7FB2042FF7DB00278346F5
:101FB000C248C157182091FBF0F200FB1210C04933
:101FC0000022085C59464FEA101A00F00F0808F189
:101FD0000100CDF814B008908DE843000AF1010328
:101FE000CDE90693CDE9035441465046FFF728FE5C
:101FF000CDE90354CDE905B9089807218DE84300E0
:10200000062241465046079BFFF71AFE7F1C7FB20F
:10201000042FCDDBA94900200A5C521C0A54401C45
:1020200040B20428F8DB09B0BDE8F08FBAF1360FF2
:102030003CDA8346A148C157182091FBF0F200FB1F
:1020400012119F480022405C59464FEA101800F0D8
:102050000F0A0AF10100CDF814B008908DE8430092
:1020600008F10103CDE90693CDE9035451464046FA
:10207000FFF7E6FDCDE90354CDE905B9089807213E
:102080008DE84300062251464046079BFFF7D8FDE6
:102090007F1C7FB2042FCDDB884900200A5C521ED2
:1020A0000A54401C40B20428F8DBBCE7BAF14E0FDA
:1020B0003DDA83468148C157182091FBF0F200FBBE
:1020C00012117F48405CCDF814B04FEA101A00F0AE
:1020D0000F0808F10100CDE900B00AF101030296F2
:1020E000CDE906930890CDE90354424600215046BD
:1020F000FFF7A6FDCDE90354CDE905B908980721FE
:10210000CDE900100296424606215046079BFFF794
:1021100097FD7F1C7FB2042FCCDB684900200A5C4E
:10212000521C0A54401C40B20428F8DB7BE7BAF189
:10213000660F3DDA83466148C157182091FBF0F2E3
:1021400000FB12105E49085CCDF814B04FEA101A7B
:1021500000F00F0808F10100CDE900B00AF1010319
:102160000296CDE906930890CDE90354424600213A
:102170005046FFF765FDCDE90354CDE905B9089850
:102180000721CDE900100296424606215046079BE2
:10219000FFF756FD7F1C7FB2042FCCDB47490020A0
:1021A0000A5C521E0A54401C40B20428F8DB3AE78D
:1021B000BAF16C0FBADA834607200090CDE9010628
:1021C000CDE90354CAF16C01CDE905B94FFA81FAA2
:1021D0000622012311460020FFF732FDCAF1070055
:1021E0004FFA80F80721CDF814B0CDE900180AF1B4
:1021F00001014BB20296CDE90693CAF1060047B23F
:10220000CDE903543A4606215046FFF719FD072051
:102210000090CDE90106CDE90354CDE905B90622C8
:1022200011465046079BFFF70BFD0721CDE900182B
:102230000296CDE90354CDE905B93A4601230621BA
:102240000020FFF7FDFC0721CDF80080CDE9011645
:10225000CDE90354CDE905B9394601230622002012
:10226000FFF7EEFCCDF80080CDE90186CDE90354FF
:10227000CDE905B93A4611465046079BFFF7E0FC09
:102280000721CDF80080CDE90116CDE90354CDE951
:1022900005B9394606225046079BFFF7D1FCCDF819
:1022A0000080CDE90186CDE90354CDE905B93A4670
:1022B000114601230020FFF7C3FCB4E623000020F1
:1022C00080E80008FEE7C1B2000A40EA012070473A
:1022D0002DE9F84F0020ADF80000DFF834A14BF6EF
:1022E000BF7648F280074A4D4A4C40F68F7848F650
:1022F0000F7BDFF824910AF1440A31E00888474A4D
:1023000010F00F00107034D0454901EB8001D1F876
:10231000002CADF80020BDF8002012040BD5D1F838
:10232000002C02EA0802C1F8002C3E4901EB8000B3
:1023300050F8040C8047BDF80000000610D537485F
:102340003749007801EB8001D1F8002C02EA0B023A
:10235000C1F8002C344901EB800050F8040C804790
:10236000DAF800004946A9F800000004C6D4BDE828
:10237000F88F28682080208800F030006080208856
:1023800000F4405020802868304080F4005080F0F5
:102390002000384328600888C006286815D400EA61
:1023A0000B00286000F0F2FC26E02188890401D5AA
:1023B00080F400506188C90626D46188890601D559
:1023C00080F0200038432860D1E7ADF80000BDF868
:1023D0000000000506D5286800EA0800286001F022
:1023E000BDFD09E0BDF800000004B9D5286800EA89
:1023F0000800286000F068FF286821883040C90480
:10240000D3D580F48050D0E780F01000D5E70000ED
:10241000005C0040D6030020DA020020C403002044
:102420000050004000030020E402002070B5204866
:102430000168204801601E49091D096841601C4966
:102440000831096881600168CC4341680C434168E8
:10245000826861EA0201826800684C400240D04311
:1024600044401548844222D04FF4E01002F08AF82C
:1024700000F046FE4FF4E16000F0E4FB002002F0C3
:1024800081FC4FF42F7000F0DDFB012002F07AFC9C
:1024900001F05AFD02F0A6FB02F090FB074D214629
:1024A00007A00AF079FE2846401EFDD1F7E770BD6F
:1024B000E8F7FF1FDC030020EF1238B83E4B4C005A
:1024C00030582538580D0A00810008480844D0F8D3
:1024D000001C490409D5D0F8001C48F68F72114041
:1024E0004CF280021143C0F8001C704700500040BD
:1024F000810008480844D0F8001C490609D5D0F8E6
:10250000001C48F68F72114048F2C0021143C0F817
:10251000001C704700500040F0B50323B0FBF3F4FB
:1025200003FB14030F480022891AC0780E4D00EBFC
:1025300040000E4CCEB24FEA402C02EB420100208C
:102540000CEB811100EB40071F44401CEF5DC0B253
:10255000274440287E54F5D3521CD2B2082AECD32B
:10256000F0BD0000280100204FED000824110020DC
:10257000810006480144D1F8000C48F68F621040F3
:1025800048F280021043C1F8000C70470050004030
:10259000F0B51548154D022190F9034090F904203B
:1025A00090F90530ED780EE001EB41068757BC420B
:1025B00008D1064496F90170BA4203D196F9026037
:1025C000B3420ED0491CA942EEDB072C09D8002AE1
:1025D00007DB072A05DC002B03DB072B01DC0020CF
:1025E000F0BD0120F0BD0000242300203B010020AD
:1025F0002DE9F047DFF89480254F4FF03009D8F8E7
:10260000001001F11005088A0E7A08B9042E04D0D2
:10261000AC88A04215D8042614E01E480178012990
:1026200003D00726102038802BE01B4A00211268B7
:102630001A4B120403EBD2325160A7F800900170DC
:102640001FE00226844200D90446A9682046884734
:102650008246002000F0B2FA01462246504602F0BF
:1026600003FC2146002001F0E7FB2888001B28809E
:10267000688820446880A7F8009009494FF44050CA
:102680000880D8F800000672BDE8F087C803002073
:10269000D8030020C0030020505C004000600040D0
:1026A000D60300202DE9F047224EDFF88C8030273A
:1026B000356835F8100FA968A9B100B3AC88844219
:1026C00000D904462046884781462888001B288078
:1026D000688820446880002000F050FA01462246B5
:1026E000484600F015FE288848B114494FF4405080
:1026F00008800021084601F09FFBA8F80070288898
:10270000A988884201D3032001E020B10520316867
:102710000872BDE8F0873168062008720849002079
:102720000968084A090402EBD1314860A8F8007032
:10273000EFE70000C8030020D8030020D6030020E4
:10274000505C004000600040F8B55D4C5D4D0926CE
:102750002068002729684278062A05D0AAB1082AED
:102760004DD00A2A50D06BE00278520668D18078AA
:10277000012804D0022804D0032804D060E0C969ED
:1027800056E0096A54E0496A52E04288B2BBC28806
:10279000022A55D102798ABB0278530601D1838877
:1027A00033B102F07F02012A04D0022A0CD047E0A4
:1027B00045493DE08A69407900219047F0B9206899
:1027C000807A0028F4D13BE0417901F00F0001F05C
:1027D00070020B063D4901EB8001D1F8001C03D5C6
:1027E000C1F30111090102E0C1F301310903384BC2
:1027F0001B78834224D90AB90029D9D120E0007876
:1028000040061DD1334913E0027802F07F02012A0D
:1028100016D1827AA2B1428892B9027982B9C2886D
:10282000012A0DD18A6940790021904740B92A498F
:1028300031B120684782816100208847002006E08E
:1028400029682068096940788847032813D02168DF
:102850000A8AA2F57F43FF3B0BD002280ED06AB153
:102860000878000626D5C888009082420AD90882D6
:1028700018E00E72F8BD20680672F8BD4FF008002F
:102880000872F8BD0ED22868144B90F82C008242D2
:1028900001D21F7006E0B2FBF0F400FB142008B96F
:1028A00001201870286890F82C008882BDE8F84054
:1028B000FFF79EBE03200872094900030880F8BD97
:1028C000C8030020CC030020414300080050004012
:1028D00088030020D542000819430008C0030020E7
:1028E000D60300207047000010B5044600230AF00C
:1028F000BEF8064903E0E25CCA545B1CDBB28342CB
:10290000F9D35C220A54401CC0B210BD28420020FA
:10291000214810B5B0F80211B0F80021914239D029
:10292000B0F80211B0F80021914205D2B0F80011C0
:10293000B0F80221891A03E0B0F80211C1F58071E4
:102940008CB2402C00D94024B0F80211B0F802211A
:102950002244A0F80221B0F80221FF2A02D9002265
:10296000A0F8022108442246C02102F07DFA0B485B
:1029700000680B49000401EBD030084944614C3930
:10298000086848F6BF72104080F0300048F28002BC
:102990001043086010BD00008A420020505C0040D7
:1029A0000060004010B50A49032002F021FAC1B2CC
:1029B000074802F02FFA074908684BF68F7210405B
:1029C00080F4405048F280021043086010BD0000BF
:1029D0008E4500200C5C00400149086070470000F3
:1029E0001404014030B51A498379026853B30B6867
:1029F00093430B600A1D13680468A34313600279B4
:102A00000A441368046823431360114A08321368A8
:102A10000468A3431360131D1C680568AC431C6065
:102A20004479102C05D021440A68006802430A60EA
:102A300030BD1168046821431160196800680143C2
:102A4000196030BD0079084401689143016030BDD0
:102A5000000401400149032008607047B0030020D2
:102A600038B501211C2000F021FD4FF48070ADF835
:102A7000000003248DF8024010258DF803506946AC
:102A80000D4800F01FF84FF43040ADF800008DF80D
:102A900002408DF803506946084800F013F84FF4DF
:102AA0007070ADF800008DF802408DF80350694653
:102AB000034800F007F838BD00080140000C014051
:102AC00000100140F0B5CA78002502F00F03D206CD
:102AD00001D58A7813430A784FF00F0E12F0FF0FDA
:102AE0004FF001021CD004680F8802FA05F6374047
:102AF000B74211D14FEA850C0EFA0CF724EA07070A
:102B000003FA0CF43C43CF78282F02D0482F02D090
:102B100002E0466100E006616D1C082DE4D304600C
:102B20000C88FF2C1ED944685FF0000606F10807E8
:102B300002FA07F50F882F40AF420FD14FEA860CFB
:102B40000EFA0CF7BC4303FA0CF73C43CF78282F5E
:102B500000D14561CF78482F00D10561761C082E41
:102B6000E4D34460F0BD0246002092680A4200D0DF
:102B7000012070474161704701617047054909684C
:102B800089B201EBC000044901EB4000008980B22A
:102B900070470000505C0040006000400549096833
:102BA00089B201EBC000044901EB40008089C0F309
:102BB00009007047505C004000600040044909680B
:102BC00089B201EBC000034931F8100080B27047B0
:102BD000505C00400060004010B50B4C01460023E3
:102BE00001222046FEF730FF01212046FEF76BFF51
:102BF00002212046FEF7F6FE0028F9D02046BDE867
:102C00001040FEF7ECBE0000002401400A4810B559
:102C10000168001D0468001D006808180BD0082218
:102C2000064900F0E1F8054920460422BDE81040BD
:102C3000103100F0D9B810BDE8F7FF1FBE02002028
:102C4000FEE70000074A10B50021054B126800E0BE
:102C5000491CB3FBF0F4B2FBF4F48C42F8D810BD7D
:102C6000E09304000800002030B5044685B001213F
:102C7000092000F01BFC4FF40070ADF81000482054
:102C80008DF8130004A91C48FFF71CFF0121C8029E
:102C900000F00CFC194D284601F0D2FDC820ADF81B
:102CA00004000020641EADF80040ADF80600ADF849
:102CB00002008DF808006946284601F08DFE1920B3
:102CC0008DF80C0001208DF80D008DF80E008DF8A8
:102CD0000F0003A800F052FA0121284601F0A0FDE0
:102CE00001221146284601F06FFE0121284601F01D
:102CF0009DFD05B030BD0000000C0140002C0140DE
:102D000070B5204C4FF40071E068401CE0606078C2
:102D1000A0701D48FFF727FF6070A17800292FD011
:102D200000282DD1E26800214D2A0AD80123392A32
:102D300003D9E3702020207121E0E078F8B10F2A58
:102D400001D9E1701BE00F48401DC5786D08C570C2
:102D5000072A02D945F08002C2702279521E12F071
:102D6000FF02227102D0520703D008E0E170237005
:102D700005E04278027082784270C2788270E16029
:102D800070BD000014010020000C014010B5134C70
:102D90002068017A022904D0042902D0062905D02E
:102DA00015E0FFF725FC2068007A11E0417805293D
:102DB00009D10178490606D1C07800F0AFFF084874
:102DC0000068006A804707480068806880470820DC
:102DD00021680872BDE8104000F00EBBC803002057
:102DE000D0030020CC030020F0B500230A243025B6
:102DF00037261F4611E000BFB4EB107F02D905EB68
:102E0000107C01E006EB107C01F813C001EB430CD1
:102E100000015B1C8CF80170DBB29342ECD3F0BD77
:102E20002DE9FC5FA148DFF898E2DFF898B28378DB
:102E3000A248A64F0024D0F800A0A3489C4D9D4E68
:102E400090F80080DFF870929EF800209BF8001048
:102E500038784FF0010C402B71D022DC152B6FD04D
:102E60000DDCDFF86CA2A3F10703072B9AF8001022
:102E700015D2DFE803F0BE54E4141445A900162B64
:102E800071D0182B3FD0192B6ED01C2B07D10328E3
:102E90004BD0042803D12C70347089F800C0BDE8F1
:102EA000FC9F472BFBD015DC422B4AD0432BF6D09E
:102EB000442BF4D0452BF2D1834DB8F1000F70D0E4
:102EC00000221146104608F045FD0A2003F0F4FBED
:102ED0002C70E4E7DFF8FCC14A2B9CF800204AD0B4
:102EE000522B36D05A2B24D05E2BD8D103203870E9
:102EF00014218EF800108BF800408CF80040CEE7CB
:102F000087F800C040E00220387073480168734AB7
:102F100001F4E06111430160BFF34F8FFEE7032826
:102F2000BDD1F02ABBD80A3210E0F029B7D80A3157
:102F30001EE00328B3D1F02AB1D80A3220E08FE096
:102F400068E00328ABD10A2AA9D30A3A8EF80020F8
:102F5000A5E7032809D00428A1D12C703470FF20E4
:102F600089F800009BE70EE012E00A2997D30A399E
:102F70008BF8001093E7032891D10A2A8FD30A3ADD
:102F80008CF800208BE73C70BDE8FC5F03F04CB987
:102F9000042807D05249494C50468A4506DA51491F
:102FA00005E078E02C70FF20307030E04E490BF0E7
:102FB00037FA4E49884202DD4B490BF031FA494954
:102FC000884266DB20606AE7042038704848048045
:102FD0004848048003F028F901F0BAF800F0F2FF45
:102FE0000A20CDE9000400231A46012101F084F8EB
:102FF00055E728B1042807D0BDE8FC5F08F0FEB80B
:103000001029A5D2891C24E0FF20287026E089F829
:10301000004044E740B12C48B8F1020F0CD0B8F1A1
:10302000010F95D1022103E03348017811B100214D
:10303000017034E70121FBE780F800C02FE728B1D9
:10304000042809D0BDE8FC5F08F0A6B8042989D996
:10305000891E8AF8001022E785F800C03470D6E790
:10306000042806D01E49154C50468A4505DA1D49EC
:1030700004E02C7086F800C0C9E71B490AF0F6FE90
:103080001A49884202DD18490AF0F0FE1B498842BD
:1030900098DD084696E785F800C002B00022BDE83A
:1030A000F05F1146104608F055BC000019010020E1
:1030B0003B0100203C0100203D0100204800002091
:1030C00037010020380100203A01002028010020AB
:1030D00025010020390100200CED00E00400FA0574
:1030E0000000A04100004040000020410000484294
:1030F0003001002032010020260100200000C842DB
:1031000038B50121082000F0D1F94020ADF80000C9
:1031100003208DF802001020054C8DF8030069464D
:103120002046FFF7CFFC40212046FFF723FD38BDA6
:10313000000C01400448817A044809B1052100E0EF
:103140000121016070470000F0450020B00300201D
:1031500090F9002091F900309A4207DD5A40027040
:103160000B7853400B700178594001707047FEE7AF
:10317000704770474FF4806000F032B870B50F238D
:10318000C47801780122F4B1144C2468457804F421
:10319000E064C4F5E064240AC4F10406E3408478E2
:1031A000B5401C402C4301F1E021230181F800349B
:1031B000007800F01F018A404009800000F1E02003
:1031C000C0F8002170BD01F01F0082404809800056
:1031D00000F1E020C0F8802170BD00000CED00E09F
:1031E0000249084302490860704700000000FA05E0
:1031F0000CED00E070B52F4D2868017844784A0640
:1032000006D001F07F00012828D002282BD035E01D
:10321000092C06D0052C07D0032C0ED0012C14D07D
:103220002CE001F0D7F828E0C1787F292ED88178EA
:1032300061BB818851BB807A27E0C17801291DD10B
:103240008088D8B901F0E2F817E0C178012915D1DA
:10325000818899B9407A80060AD40FE00B2C0DD1F1
:1032600001F02AF909E0012C02D0032C03D005E07B
:1032700000F0B2FF01E001F0DBF858B10E49204642
:10328000096849698847032802D018B108200DE071
:1032900009200BE0094A062000211268084B12049D
:1032A00003EBD2325160074A30211180296808723D
:1032B00070BD0000C8030020CC030020505C00401B
:1032C00000600040D803002010B50F4C2068007A41
:1032D000022811D004280FD0032804D0052802D0DA
:1032E000072805D008E0FFF7DDF92068007A04E040
:1032F00006480068C0688047082021680872BDE859
:10330000104000F079B80000C8030020CC03002072
:10331000064B521C520803EB410105D031F8043B27
:1033200020F8023B521EF9D17047000000600040B7
:1033300070472DE9FF4F85B08946DDE91654DDE978
:10334000147683469A4613A907A8DDF84880FFF74C
:10335000FFFEBCB19DF91C400DE0CDF80080CDE929
:103360000147CDE90365534622464946584605F0D4
:1033700024FA641C64B29DF94C008442EDDD09B06E
:10338000BDE8F08F9DF91C20CDF80080CDE9012724
:10339000CDE9036553464946584605F00EFA9DF9B6
:1033A0004C20CDF80080CDE90127CDE903655346D7
:1033B0004946584605F001FA9DF94C00CDF80080C9
:1033C000CDE90107CDE9036553469DF91C2041462F
:1033D000184605F0F2F99DF94C00CDF80090CDE9C2
:1033E0000107CDE903655B469DF91C204946184657
:1033F00005F0E3F9C3E700000C4810B590F82C1075
:10340000002000F0BFFC0A480068007A082802D0BB
:10341000092809D006E007494FF480500880064982
:1034200010200880002010BD012010BD38030020AE
:10343000C8030020D6030020D803002010B50120C7
:1034400001F0BAFB0648012101600021054A016034
:10345000031D19604FF4E05111800160002010BD80
:10346000405C0040D4030020034A516821F44041ED
:10347000014351607047000000100240044A0029D7
:10348000D16901D0014300E08143D1617047000060
:1034900000100240044A0029116901D0014300E0F4
:1034A000814311617047000000100240044A002966
:1034B000916901D0014300E08143916170470000B0
:1034C00000100240044A0029D16801D0014300E005
:1034D0008143D16070470000001002400C48016831
:1034E00041F00101016041680A4A114041600168F0
:1034F000094A11400160016821F48021016041689E
:1035000021F4FE0141604FF41F018160704700000B
:10351000001002400000FFF8FFFFF6FE0149C1F86D
:10352000D8007047000042422DE9F041214C0728A5
:1035300000D0207022781F4D0627052104261E4842
:10354000062A0BD2DFE802F0030C11161E2768686A
:1035500010B12170BDE8F08100F030F82770F9E774
:1035600000F02CF82670012022E002206070032079
:103570002070EFE76078401E607060780028E9D125
:103580002670E7E7026892B242F0100202602170F2
:103590000A206070DEE76178491E61706178002959
:1035A000D8D1016889B221F0100101602770002094
:1035B0006860CFE7B8030020405C004010B5064CBF
:1035C000206880B220F004002060FFF7B3FD4FF4C4
:1035D0003F40206010BD0000405C004003490120D6
:1035E000C1F89401FF2000F089BA000000002242D7
:1035F00070B5054601220021092000F0B7F904004A
:1036000004D11021284600F035F90446FFF7E6FF03
:103610000CB1012070BD002070BD70B505464FF69D
:10362000FF7401E0641EA4B2FF2000F05FF9A8421D
:1036300002D0002CF6D102E00CB1002070BDFF20BA
:1036400070BD1FB56846FFF7D3FF10B1002004B06E
:1036500010BD9DF800100120B0EB911F09D19DF81D
:1036600008209DF8091000EB02200844000480099E
:10367000EDE79DF805009DF80A1000F00F0000EB43
:10368000D1109DF809109DF8072001F0030100EB0F
:1036900041019DF80800800900EB82009DF806209A
:1036A00002F0030200EB8220401CC91F8840CEE7D5
:1036B0002DE9F84300F0F8F8382000F047FA00242C
:1036C000FF2000F01BFA641CA4B20A2CF8D31424C7
:1036D00000219522084600F049F90546012802D04C
:1036E000641EA4B2F4D2474E0027012D37707AD160
:1036F00087224FF4D571082000F038F94FF6FE7894
:1037000001281ED001220021372000F02FF90122CC
:103710000021292000F02AF901284FD8022030701A
:10372000444601220021372000F020F90122002127
:10373000292000F01BF905004DD0641EA4B2F0D280
:1037400049E000246F46FF2000F0D0F83855641C93
:10375000A4B2042CF7D39DF80200012843D19DF8B0
:103760000300AA283FD144464FF08048012200219F
:10377000372000F0FBF801224146292000F0F6F83E
:10378000050002D0641EA4B2F0D2B4B1012200211F
:103790003A2000F0EBF880B90024FF2000F0A6F8F2
:1037A0003855641CA4B2042CF7D39DF800004006E1
:1037B00001D5062000E00420307014E001203070B4
:1037C000444601220021104600F0D0F8050002D046
:1037D000641EA4B2F5D22CB101225102102000F0D7
:1037E000C5F800B13770FFF7F9FE082000F0AEF918
:1037F000307810B10020BDE8F8830DB12846FAE713
:10380000AA20F8E7B80200202DE9F0410646184842
:1038100015460078062800D049024FF40077012DA4
:103820004FF0010219D0122000F0A0F839463046BE
:1038300000F020F86D1E044606F5007615F0FF0531
:1038400001D0002CF2D0012200210C2000F08EF8D3
:10385000FFF7C4FE2046BDE8F081112000F086F895
:103860000400F5D13946304600F004F80446EFE78D
:10387000B802002070B504460D46FE20FFF7CDFECD
:1038800030B1012070BD00BF00F038F904F8010B21
:103890006D1EADB24FF0FF00F6D200F02FF9FF2001
:1038A00000F02CF9002070BD38B501211020FFF781
:1038B000FDFD2020ADF8000010208DF8030003204E
:1038C000084C8DF8020069462046FFF7FBF82021DE
:1038D0002046FFF751F900F0D3F803490120C1F861
:1038E000940138BD001001400000224200F006B9EA
:1038F000082000F02BB9382000F028B9064910B58F
:103900000020C1F8940100F060F8002802D0FFF711
:1039100065FE012010BD00000000224270B50C467B
:10392000054600F052F808B1012070BD204600F0B5
:10393000E5F8FD2C18D000244FF40076285D00F047
:10394000DDF8641CA4B2B442F8D3FF2000F0D6F82E
:10395000FF2000F0D3F8FF20FFF7C8FF00F01F00A2
:10396000052801D0022070BD002070BD70B515463D
:103970000C460646FFF732FEFFF7C0FF08B1FF20F6
:1039800070BD46F0400000F0B9F8200E00F0B6F827
:10399000C4F3074000F0B2F8C4F3072000F0AEF81B
:1039A000E0B200F0ABF8284600F0A8F80C2E02D1E7
:1039B000FF2000F0A3F81F24FF20FFF797FF010668
:1039C000DED5641EE4B2F7D270BD70B500246FF08E
:1039D0007F45FF20FFF78AFFFF2804D0641CAC421C
:1039E000F7D3012070BD002070BD000070B5064601
:1039F0001D4815460C460078062800D04C02012DC3
:103A000013D0012809D0012200213720FFF7AEFF93
:103A1000012229461720FFF7A9FF0122214619207C
:103A2000FFF7A4FF04000AD01AE001222146182063
:103A3000FFF79CFF040013D1FE2130460DE0FC216E
:103A40003046FFF76BFF6D1E06F5007615F0FF059B
:103A500001D00028F3D0FD210020FFF75FFF0446CE
:103A6000FFF7BCFD204670BDB80200200348006887
:103A7000052801D1FEF74CBF70470000B0030020BD
:103A800038B5012141F20400FFF710FDE020ADF848
:103A9000000018208DF803000320154C8DF802005B
:103AA00069462046FFF70EF8E0212046FFF764F84C
:103AB000104800214FF482720180428081800222EE
:103AC000C280012202815202428138228281C18158
:103AD00007210182084C0146204600F05EF80121D2
:103AE000204600F045F8FF2000F008F838BD00003F
:103AF00000080140784200200030014070B50646C1
:103B00000024114D03E0641CE4B2C82C0FD802213C
:103B1000284600F037F80028F5D03146284600F056
:103B20003AF8002405E0641CE4B2C82C01D9002056
:103B300070BD0121284600F025F80028F3D0284662
:103B400000F027F8C0B270BD0030014010B5064942
:103B5000064C8881204600F020F82046BDE8104041
:103B6000012100F005B8000078420020003001403B
:103B70000029018802D041F0400101E021F040011C
:103B8000018070470246002012890A4200D00120BD
:103B90007047808970478181704730B502884C88B2
:103BA00002F441530A88CD8822438C882C43224357
:103BB0000C8922434C8922438C892243CC8922439D
:103BC0001A430280828B22F400628283098A018276
:103BD00030BD70472DE9F04F01EB41018F0146499F
:103BE0004FF40054002291F802C0DFF810E1651094
:103BF0008023DFF80C91BCF1030F65D04149AEF191
:103C0000040609785FEA01783F492FD59A460023D8
:103C100003EB070C11F80C8018EA000F06D10CEB2F
:103C2000010898F8008618EA000F01D0346001E01E
:103C3000CEF800408C449CF8608018EA000F04D154
:103C40009CF860C61CEA000F01D0356001E0CEF898
:103C50000050C9F814A0C9F810A05B1CDBB2602B9F
:103C6000D6D3521CD2B2022AD1D33DE0A3460CEBEC
:103C70004C0401EB4424AA460021754601EB070CD5
:103C800014F80C8018EA000FD84602D0C6F800805D
:103C900001E0C5F80080A4449CF860C01CEA000F55
:103CA000D44602D0C6F800C001E0C5F800C0C9F88B
:103CB0001430C9F81030491CC9B26029DED3521C37
:103CC000D2B2022AD8D30FE0CEF80040CEF800508E
:103CD000494600204B610B61401CC0B26028F9D3FB
:103CE000521CD2B2022AF4D34021C9F81410C9F8E8
:103CF0001010BDE8F08F000028010020140C0140D6
:103D000000100140AC00002024110020024920F0E6
:103D10000700086070470000505C0040F0B50E4995
:103D20000E4D48F68F770B78002148F2800C0BE09F
:103D3000CEB205EB8604D4F8002C3A40324342EA76
:103D40000C02C4F8002C491C9942F1D3044940F0FC
:103D500080000860F0BD0000880300200050004093
:103D60004C5C0040054A21F00101126892B202EB5E
:103D7000C000034A02EB400081607047505C004085
:103D8000006000400D4A12683E2992B202EBC0006A
:103D90000B4A02EB400209D94809C90601D1401E6D
:103DA00080B24FF4004141EA802004E04808C9078E
:103DB00000D0401C8002106070470000505C004042
:103DC0000C60004082000A480244D2F8000C4BF616
:103DD0008F731840CB0401D580F48050890401D53D
:103DE00080F4005048F280010843C2F8000C70478C
:103DF00000500040810007480144D1F8000C4BF608
:103E00008F72104080F4405048F280021043C1F895
:103E1000000C704700500040054A21F00101126873
:103E200092B202EBC000034A42F810107047000043
:103E3000505C004000600040044A126892B202EBFD
:103E4000C000034A02EB400041607047505C0040F4
:103E50000060004082000A480244D2F8000C48F694
:103E6000BF731840CB0601D580F01000890601D53C
:103E700080F0200048F280010843C2F8000C70472F
:103E800000500040820005480244D2F8000C48F679
:103E90008F1318400843C2F8000C704700500040D0
:103EA0000CB50021264801910091026842F480324D
:103EB00002604FF4A063026802F400320092019A9B
:103EC000521C0192009A12B9019A9A42F3D10268E7
:103ED000920333D5012100911A490A6842F0100279
:103EE0000A600A6822F003020A600A6842F00202CD
:103EF0000A604168416041684160416841F4806105
:103F00004160416821F47C114160416841F46411D1
:103F10004160016841F08071016001688901FCD550
:103F2000416821F003014160416841F002014160B4
:103F30004168C1F381010229FAD10CBD00910CBD89
:103F4000001002400020024010B50020FFF7E6FA02
:103F50000121BDE81040C805FFF790BA70B51648BA
:103F60000068174D0004C10B14480144098989B247
:103F700000EB41042868017A09290FD021780170EB
:103F800061784170A088FEF79EF9296848802089F1
:103F9000FEF799F929688880A089C88028680121DE
:103FA0000172C08828B1FEF7CFFBBDE87040FFF773
:103FB00023BAFFF71FF9F8E7505C004000600040AB
:103FC000C80300202DE9F0411F4C204D4FF08048E0
:103FD000B8F82400FCF79CF9FCF74EF9C11700EB88
:103FE000517121F00701401A2070FCF745F9C11703
:103FF00000EB517121F00701401A6070FCF73CF9A9
:10400000C11700EB517121F00701401A41B2A170B4
:10401000012094F9003094F90160EA7810E000BFC3
:1040200000EB400714F907C09C4508D1274497F9D5
:1040300001C0B44503D197F902708F42C8D0401C2B
:104040009042EDDDBDE8F081242300203B010020FB
:10405000124810B590F9031090F9002091421BD13D
:1040600090F9041090F90120914215D190F90510B2
:1040700090F9020081420FD10948C178491CC9B2A8
:10408000C170152903D0BDE81040FFF79BBF032185
:10409000C17000F05DF8F6E710BD00002423002099
:1040A0003B010020F0B5124890F9003090F9014032
:1040B00090F9025043EA0401294318D0C1780D4811
:1040C0000AE000BF01EB4106321812F8037D875564
:1040D0005678167196785671491EF3D18179194434
:1040E000C170C17921440171017A29444171F0BD47
:1040F0003B010020242300202DE9FF4F83B016460A
:10410000DDE910A98846834602F08EF801240E4DA1
:104110000E4F0BE0CDE9008604EB44004119285C0A
:104120008A7849785B4607F0CBFB641CF8788442B8
:10413000F0DBCDE900A9AA7869782878069B07F01A
:10414000BFFB07B0BDE8F08F242300203B01002017
:104150000D4B10B500220320D8700C49104600BF4B
:1041600002EB4204521C08550C44142A6070A070E3
:10417000F6DB0122CA70087148718871C871087233
:1041800018705870987010BD3B0100202423002047
:104190001CB510480188491C09B20180282917DB89
:1041A00000210180C8200B460A46CDE900010A2102
:1041B000FFF7A2FFFFF776FFFEF7EAF9012803D128
:1041C000FFF7C6FFFFF7FEFEBDE81C40FFF740BF4C
:1041D0001CBD0000300100202DE9F0413848006886
:1041E000017811F07F0102D0022905D066E0417A02
:1041F00001F0DF0141724EE0418800295ED1017972
:10420000F1BB4179304D21F080040A0605EB8402B0
:104210002C4BD2F8002C03D5C2F30112120102E09C
:10422000C2F3013212031E782346A64246D93AB39E
:10423000807A28B308064FEA84000ED52844D0F8C7
:10424000000CC0F30110012821D11846FEF750F9E7
:1042500020463021FFF7FEFD19E04619D6F8000C84
:10426000C0F30130012812D14BF68F7748F2800855
:10427000A4B11846FEF728F9D6F8000C384000E043
:104280001CE080F4405040EA0800C6F8000C0F48DB
:104290000068406980470020BDE8F0810C4890F834
:1042A0002C100020FFF76EFDD5F8000C384080F48C
:1042B000405040EA0800C5F8000CE8E70220EBE7B0
:1042C000C80300208803002000500040D0030020D5
:1042D0003803002010B5074C30B10748006800686B
:1042E000804720680A3010BD216801200882002024
:1042F00010BD0000C8030020D0030020054A136849
:104300005A8A10B10868104470478888801A188249
:1043100000207047C803002010B5074C30B1074893
:1043200000688068804720680C3010BD216801203B
:104330000882002010BD0000C8030020D003002028
:10434000204910B5096860B11F48002202800A7830
:1043500053060AD002F07F02012A16D0022A16D094
:1043600001E002200882002010BD497A8A06027806
:1043700002D542F0020201E002F0FD02490602709D
:10438000D1B211D401F0FE0110E00F4810BD4A79FE
:10439000110713060D4A02EB9161D1F8001C07D5F5
:1043A000C1F3011106E0017841F00101017003E061
:1043B000C1F301310129F6D0054800680069804742
:1043C000E3E70000C8030020C203002000500040C3
:1043D000D00300200A4810B500680A4AC178527814
:1043E000914203D882780AB982880AB1022010BDAE
:1043F00081720548006840688047002010BD0000B9
:10440000C803002088030020D0030020064810B510
:104410000068417A41F02001417204480068C06997
:104420008047002010BD0000C8030020D0030020FA
:1044300070B51D481D4D0368597921F0800005EBCA
:1044400080000C06D0F8004C21F0800203D5C4F3A4
:104450000114240102E0C4F301342403144D2D7827
:10446000954210D95A8872B96CB19A7A5AB1090634
:10447000D0F8001C48F2800207D548F6BF731940F7
:1044800081F0100106E0022070BD4BF68F731940D9
:1044900081F480511143C0F8001C0648006880690F
:1044A0008047002070BD0000C8030020005000407D
:1044B00088030020D003002010B50E4C0E4A20685F
:1044C0001268C17892694079904721688A7A22B14E
:1044D00018B9087908B9887808B1022010BD0748D2
:1044E0000068C068804720684179C172C178017353
:1044F000002010BDC8030020CC030020D003002002
:1045000078B41C49002000900A681B4B94B21B4AE7
:1045100003EB8005D5F8005CADB242F82050401C9A
:104520000828F5D344F48060086040F0010008607A
:1045300020F001040C600F48001D05686D05FCD5D6
:104540004FF6FF350560002052F8205003EB80063F
:10455000ADB2C6F8005C401C0828F5D344F0080052
:104560000860086880B240F00400086078BCFEF77C
:1045700071BA0000405C004000500040D04500206F
:10458000704700007CB50025044601950095FEF7B4
:10459000A5FF2649086840F4803008604FF4A06207
:1045A000086800F4003000900198401C01900098C9
:1045B00010B901989042F3D10868800334D50120E6
:1045C00000901B48026842F010020260026822F06C
:1045D00003020260026842F002020260486848601A
:1045E00048684860486840F480604860486820F443
:1045F0007C104860486844F4803210434860086882
:1046000040F08070086008688001FCD5486820F0A0
:1046100003004860486840F0020048604868C0F302
:1046200081000228FAD17CBD00957CBD00100240BB
:10463000002002400F4810B5016841F001010160FF
:1046400041680D4A1140416001680C4A1140016007
:10465000016821F480210160416821F4FE0141607C
:104660004FF41F018160FFF71BFC05494FF000600C
:10467000086010BD001002400000FFF8FFFFF6FECA
:1046800008ED00E010B50B4C0121204600F090F938
:1046900000280DD00121204600F0C5F8FEF730FBC0
:1046A000054C2078012803D1FEF7BAFB00202070CA
:1046B00010BD0000002C01401401002070B54FF027
:1046C0008040018AC90732D08189C9072FD04FF6AF
:1046D000FE710182164C6178491CC9B261700829CB
:1046E0000DD300216170A278521CD2B2A270082AA8
:1046F00000D3A1700F49A27831F8121081850E48BD
:104700004FF4004505606078C0F10700C0B2FDF7C6
:104710007BFA0848A1780838405C6178FFF75AFABC
:104720000548001D056005480168491C016070BD11
:104730000000002052E60008100C01402C0100206F
:1047400070B520480188C9073AD0011F0988C907F8
:1047500036D04FF6FE7101801B4800251B4C0078B7
:10476000052819D2DFE800F0031813181600E078C6
:104770001749401CC0B2E070097888420CD3154834
:10478000E5700178012907D10221017004E001F0F0
:10479000B9FD01E0FFF7FCFCA088401C80B2A080BE
:1047A00064280DD3207830B100202070A5804021EE
:1047B00018B1094803E00120F7E70748001D016030
:1047C00070BD0000100400402801002000000020FF
:1047D0002501002024010020100C01400D4810B5D7
:1047E0000188C90715D0011F0988C90711D04FF6E4
:1047F000FE7101800220FEF7EFF9084A064BD188CE
:1048000023F81100491C88B2D080802801D90020EB
:10481000D08010BD10080040E80D002000000020EE
:10482000C94301827047C94301827047002901884A
:1048300002D041F0010101E021F001010180704747
:104840004B4910B5884202D10121C41486E0B0F171
:10485000804F09D0474988420DD101210220FEF73F
:1048600019FE0021022064E001210846FEF712FE35
:10487000002101205DE04049884206D10121042049
:10488000FEF708FE0021042053E03C49884206D18F
:1048900001210820FEF7FEFD0021082049E03849EB
:1048A000884206D101211020FEF7F4FD00211020DE
:1048B0003FE03449884206D101212020FEF7EAFD7D
:1048C0000021202035E03049884202D101214414E2
:1048D00044E02E49884202D10121CC043EE02C491B
:1048E000884202D101210C0538E02A49884202D1D0
:1048F00001214C0532E02849884206D1012140209F
:10490000FEF7C8FD0021402013E02449884206D16B
:1049100001218020FEF7BEFD0021802009E0204912
:1049200088420AD1841501212046FEF7B3FD0021FB
:104930002046BDE81040FEF7ADBD1A49884202D1BD
:1049400001210C040AE01849884202D101214C04DB
:1049500004E0164988420AD101218C042046FEF762
:10496000B1FD2046BDE810400021FEF7ABBD10BDF3
:10497000002C01400004004000080040000C0040F2
:10498000001000400014004000340140004C014081
:10499000005001400054014000180040001C00403D
:1049A0000020004000400140004401400048014018
:1049B00002460020138A92890B4202EA010202D0C9
:1049C000002A00D001207047002A828901D00A43C2
:1049D00000E08A438281704730B502881B4B1C4C33
:1049E00098420DD0A0420BD0B0F1804F08D0194DA5
:1049F000A84205D0184DA84202D0184DA84203D1B4
:104A000022F070054A882A43154DA84206D0154D5C
:104A1000A84203D022F44075CA882A4302808A88BB
:104A200082850A88028598420AD0A04208D00E4AA0
:104A3000904205D00D4A904202D00D4A904201D1D9
:104A4000097A01860121818230BD0000002C0140DD
:104A5000003401400004004000080040000C004009
:104A6000001000400014004000400140004401409C
:104A7000004801407FB50C46054601210846FEF777
:104A8000FDFC6D1EADF80440ADF8005000244FF061
:104A90008045ADF80640ADF8024069462846FFF76C
:104AA0009BFF012241212846FFF78EFF1C208DF835
:104AB0000C0003208DF80D008DF80E4001208DF8BC
:104AC0000F0003A8FEF75AFB01212846FFF7AEFEB0
:104AD0007FBD00007FB50C46054601210220FEF790
:104AE000CDFC6D1EADF80440ADF800500024104D13
:104AF000ADF80640ADF8024069462846FFF76CFF66
:104B0000012241212846FFF75FFF1D208DF80C0090
:104B100004208DF80D008DF80E4001208DF80F0057
:104B200003A8FEF72BFB01212846FFF77FFE7FBD80
:104B3000000400407FB50C46054601210420FEF725
:104B40009DFC6D1EADF80440ADF800500024104DE2
:104B5000ADF80640ADF8024069462846FFF73CFF35
:104B6000012241212846FFF72FFF1E208DF80C005F
:104B700002208DF80D008DF80E4001208DF80F00F9
:104B800003A8FEF7FBFA01212846FFF74FFE7FBD81
:104B90000008004004490020A1F80201A1F800012A
:104BA00002490880012070478A420020BA02002092
:104BB0004FF48020FDF710BF7047000006480549FC
:104BC000022201600A72064A0449C0E9011208681B
:104BD00000470000F0450020C803002038030020F3
:104BE0008C0300203EB54FF480242046FDF7F4FEF0
:104BF000082001948DF8090001248DF80A4001A8CD
:104C0000FDF7F0FE14208DF800008DF8014000251E
:104C10008DF802508DF803406846FEF7AFFA2A205F
:104C20008DF800008DF801506846FEF7A7FA3EBDEA
:104C30002DE9F0414C4E88B0002430684B4D68801F
:104C400068884B4F39880840800507D54FF6FF50DC
:104C500030602878401C2870FEF708FF6888398883
:104C60000840000401D5FDF733FB688839884FF60A
:104C7000FF380840400504D5C6F800803D4840682C
:104C80008047698838880140890402D54DF6FF7154
:104C9000316069880140C80405D54EF6FF70306068
:104CA0000020FEF741FC68883988084000050BD5D4
:104CB0003148007810B1FFF723FC02E00220FEF734
:104CC00033FC4FF2FF703060688839880840C005B7
:104CD00046D54FF6FF6030602348001D00684FF056
:104CE0000002000438D56868401C686068680328C2
:104CF00033D91D48001F016809072ED4016889B205
:104D0000A9601E494FEA0D0301EB8407D7F8007C28
:104D1000BFB243F82470641C082CF5D3AC6844F08F
:104D20000104AC60AC68A4B20460AC6824F0010477
:104D3000AC60AC68A4B2046030684005FCD5C6F82D
:104D40000080002053F8204001EB8006A4B2C6F892
:104D5000004C401C0828F5D36A600720FEF7E4FBEE
:104D600008B0BDE8F0810000445C0040D80200209B
:104D7000D403002038030020B4030020005000407A
:104D8000FFF756BF10B5044601210420FEF78EFB45
:104D90000C49086824B14FF6FD721040086010BD40
:104DA00080B240F0020008600748016821F47F21CA
:104DB0000160016841F44C31016004490020C1F8F0
:104DC000B00110BD405C00400408014000002142D9
:104DD00005490020086005494FF43F40088002491A
:104DE000091F086000207047445C0040D403002085
:104DF00070B500F07F060D463046FDF7CFFE044645
:104E00003046FDF7BBFE014622462846FEF780FAF3
:104E1000204670BD70B50022064D074C06E0238881
:104E2000865CEE545B1C521C2380D2B28A42F6D3BD
:104E300070BD00008E440020BA0200200849B1F87D
:104E400000218854B1F80001401CA1F80001B1F81C
:104E50000001B0F5807F02D10020A1F80001704769
:104E60008A420020FEE70000094B10B5521C520890
:104E700003EB41010AD000BF10F8013B521E10F8AD
:104E8000014B43EA042321F8043BF5D110BD000097
:104E900000600040104A10B500211268212802D09D
:104EA000202807D016E0107800F07F00212811D1CB
:104EB0000A4908E0107800F07F00212800D1084955
:104EC000084B2020187029B100209161508288473A
:104ED000002010BD022010BDC8030020014F0008B3
:104EE000755000081C0300200149FFF707BA0000B5
:104EF000300300200149FFF701BA00002803002019
:104F000008B1044870470449082009680882002055
:104F10007047000020030020C803002005490968ED
:104F2000C978042901D900207047034A02EBC10166
:104F3000FFF7E4B9C80300206803002009B901287D
:104F400001D9022070470020704700000749096816
:104F5000097801F07F01212903D1022803D02228FA
:104F600001D002207047002070470000C8030020D5
:104F7000334810B50068334A00218172D2794272F9
:104F8000C1720846FEF7C2FE4FF400710020FEF722
:104F900079FF10210020FEF75DFF40210020FEF781
:104FA000E1FE80210020FEF737FF0020FDF7E0FA48
:104FB000254890F82C100020FEF7E4FE0020FEF7B4
:104FC00019FF00210120FEF75DFFC0210120FEF73F
:104FD00023FF20210120FEF73DFF00210120FEF7E5
:104FE000F1FE4FF4C0610220FEF74CFF4FF48071D8
:104FF0000220FEF711FF00210220FEF7E3FE202130
:105000000220FEF727FF00210320FEF73BFF4FF4AD
:1050100088710320FEF7A6FE40210320FEF7B2FEB2
:105020004FF440510320FEF7CDFE00210320FEF790
:1050300011FF0020FEF772FE04490120086010BD38
:10504000C8030020A0F6000838030020B0030020A9
:105050000348807A002802D0024905200860704782
:10506000F0450020B003002001490420086070478B
:10507000B003002008B104487047044908200968BB
:10508000088200207047000020030020C803002091
:1050900010B5044C2078202803D1FFF77BFD0020B9
:1050A000207010BD1C0300207047000010B5FDF7F4
:1050B000ADFD0548002400688472FEF7BFF9FFF7D4
:1050C00087FE0248046010BDC8030020B003002022
:1050D000490050EAC12018BF04204A0D18BF40F013
:1050E000010040F2FF72B2EB515F08BF40F00200D6
:1050F000012808BF052070472DE9F74F144694B0EA
:105100000021C4E902111599079121F00045C94910
:105110008D4206DC1599C4E9000117B00020BDE8F6
:10512000F08FC549DFF814A3A9423CDD0799C44EAE
:105130000029C44FC44A1599534619DD08F080FD73
:10514000554506D0C14AC24B08F07AFDC4E90001BA
:105150000AE04FF0D352BE4B08F072FD32463B4698
:1051600008F06EFDC4E9000117B00120BDE8F08F22
:1051700008F09EF8554506D0B44AB54B08F098F8AB
:10518000C4E900010AE04FF0D352B14B08F090F8A7
:1051900032463B4608F08CF8C4E9000117B04FF0E6
:1051A000FF30BDE8F08FAB49A942159978DB21F0BB
:1051B000004183468846A84AA84B08F051FB0022CC
:1051C000A74B08F075F808F0C3FA099008F01DFB2A
:1051D00006460F469C4A534608F042FB43465A4651
:1051E00008F03CFC80468A46984A994B304639463E
:1051F00008F036FB2A0D01250B924246534608F073
:105200002DFC032DC4E9000139D00B98C1F30A51DC
:10521000401A05EB45111139814230DA9148C346F5
:10522000784400EB0510CDF80CA00C90D0E90023D9
:105230003046394608F014FB02460B4604910690AE
:105240005846039908F0FCFC80468A4602460B4605
:105250005846039908F0F4FC049B069A08F0F0FC09
:1052600083460C9803913946D0E90223304608F072
:10527000F7FA5A46039B08F0E3FC6D1CBDE707985C
:105280000028A2BF099817B0BDE8F08F616881F0CF
:1052900000416160099817B04042BDE8F08FFFE718
:1052A00084461598C1F31301C0F30A50A0F2F530FB
:1052B0004FEA601800F01F06C6F12000139000208E
:1052C0000690079041F4801E05206D4676B1664A2F
:1052D00008EB00017A4452F8213002EB8101B3401F
:1052E0004A68139922FA01F1194305E05F4908EB76
:1052F0000002794451F82210A1FB0E27A1FB0C13E8
:105300001A449A4234BF0123002303EB070A05EB3A
:105310008003D3E901B70F448F4234BF012100213C
:1053200093448B4411B1934502D903E0934501D2D4
:10533000012100E00021C3E901B7514445F82010E4
:10534000011EA0F10100C1DC0298059F00F1005090
:10535000800F12900298DDE90356800008F055FA9C
:10536000834628460D9108F067FA6FF01D0209F098
:1053700000F9CDE90E01304608F05EFA6FF03D020B
:1053800009F0F7F880468A46384608F055FA6FF07B
:105390005D0209F0EEF8074642465346119107F0C8
:1053A00087FFDDE90E2307F083FF5A460D9B07F0C8
:1053B0007FFF00250E465A4628460D9B08F040FC0C
:1053C000DDE90E2308F03CFC4246534608F038FC69
:1053D0003A46119B08F042FBDFF898A0244A534656
:1053E00008F03EFA07468846234A244B31462846B1
:1053F00008F036FA3A46434607F05AFF0746884611
:105400004FF0A84253463146284608F029FA3A465A
:10541000434607F04DFF159A12F0004F04D0129A40
:1054200081F0004152421292C4E90001129817B073
:10543000BDE8F08FFB21E93F7CD90240FB21F93F19
:105440007370032E8A19A33B000040543163621A23
:1054500061B4D03DFB21394183C8C96D305FE43F61
:105460000000E03FD4A5000050A5000032A50000D8
:10547000182D4454FB21F93D3326A611460B113C4F
:105480002DE9FF4D21F0004807460C46B8F1795F41
:1054900008DA08F05DF9002801BF0020324904B0A5
:1054A000BDE8F08D3A4623461046194608F0D8F973
:1054B000054602462D480E460B460621784400F06C
:1054C0005DF82A46334608F0CBF9DDE9022382462F
:1054D0008B463846214608F0C3F904460F4652462B
:1054E0005B462846314608F0BBF922463B4608F0A9
:1054F000A7FB07468A464FF0FF322846314609F09F
:1055000038F81B4A90450ADA3A46534608F098FBA9
:1055100004B00022BDE8F04D134B08F09FBA154AC5
:105520004245A8BFA8F500154FF00004B8BF124DC2
:1055300022462B4608F084FB0646884622462B4628
:105540000020094908F07CFB04460D463A465346C4
:105550003046414608F074FB04B022462B46BDE8B5
:10556000F04D08F07BBA00000000F03FC8A2000038
:105570003333D33F0000E93F0000D23F2DE9F04133
:105580004F1E00EBC7010446D1E9000115461E4637
:1055900037F006020DD02A46334608F061F97F1E27
:1055A00004EBC703D3E9002307F082FE37F00602BD
:1055B000F1D1022F25D0042F13D0062F18BFBDE83C
:1055C000F0812A46334608F04BF9D4E90A2307F064
:1055D0006FFE2A46334608F043F9D4E9082307F062
:1055E00067FE2A46334608F03BF9D4E9062307F064
:1055F0005FFE2A46334608F033F9D4E9042307F066
:1056000057FE2A46334608F02BF9D4E9022307F067
:105610004FFE2A46334608F023F9D4E90023BDE8BB
:10562000F04107F045BE00002DE9FF4D054621F091
:10563000004084B00C46B0F1795F0BDA2846FFF7E2
:1056400047FD042808BF00F077F8284608B0214637
:10565000BDE8F08D2A460B46104608F001F90646D3
:105660000F462A46234608F0FBF8804626488A461D
:1056700032463B4605217844FFF780FF8346109869
:10568000029160B3214A224B4046514608F0E8F8A7
:10569000CDE900015A4640465146029B08F0E0F829
:1056A00082468846DDE906014FF0FF3208F061FFCF
:1056B0005246434608F0C4FA32463B4608F0D0F85A
:1056C000DDE9062308F0BCFADDE9002308F0B8FAAA
:1056D00008B02A462346BDE8F04D08F0BFB90B4696
:1056E0005A463046394608F0BBF8084A084B07F0DE
:1056F000DFFD4246534608F0B3F808B02A46234679
:10570000BDE8F04D07F0D4BD46A2000049555555FF
:105710005555C5BF002213461046014907F084BE07
:105720000000F03F012208F024BF0022134610467B
:10573000114607F079BE0000024A0020110708F068
:1057400018BF000001FDFFFF30380A2801D20120F8
:1057500070470020704701460A2091FBF0F040B2EC
:10576000424202EB820201EB420149B2052901DB10
:10577000401C40B2704700002DE9F0471A4F8846A0
:10578000064699461046394608F0E4FB174C616A14
:1057900008F06CFB0546012E12D03946404608F051
:1057A000D9FB216A08F062FBC4E90805394648467E
:1057B00008F0D0FB216808F059FB2060BDE8F087B5
:1057C0006562E1690020B1F17E5F04DA626812B9B6
:1057D000012262606062064A9142EFDD6168012940
:1057E000ECD160626060E9E70000C842D0000020B0
:1057F0000000E0402DE9F04FDFF838B1DFF838A1C4
:105800004E4D9BF8000085B04FF000094FF00108A5
:10581000012802D06878E8B343E000265746002408
:10582000A879297900EB800007EB0010405C202864
:1058300028D04149503101EBC000C4F107010844B0
:10584000A0F5805090F8F81D08FA06F0014219D032
:1058500095F90100298900EB800001EB800000B27E
:1058600003AB02AA04A902F013FE9DF80C109DF8E8
:105870000800CDE900016A789DF8103021463046D5
:1058800006F01EF8641CE4B2082CC9D3761CF6B2EC
:10589000082E00E001E0C2D316E04FF47A7000F069
:1058A0000BFF00264F460024009701976A780023DB
:1058B0002146304606F004F8641CE4B2082CF3D309
:1058C000761CF6B2082EEED36878401E40B268709F
:1058D000002828DA9BF8000007265C4601280BD038
:1058E000A879297900EB8002491C0AEB0212C9B29F
:1058F0002971515C21B113E002208BF8000011E006
:10590000401C85F8049010F0FF004946A87107D0AC
:10591000A9710B494FF4967081F8008000F0CCFE1D
:1059200084F800806E70232000F0C6FE05B0BDE84C
:10593000F08F0000640000200FEE000840010020FE
:10594000530000202DE9F04FDFF84C92DFF84CB205
:105950008BB099F800004FF0010A042849D19BF858
:10596000030028BB00248E48002500EBC40840300B
:1059700000EBC407403000EBC406641CE0B2032215
:10598000294602F039FD08F80500E0B20322294655
:1059900002F00EFD7855E0B20322294602F0E4FC45
:1059A00070556D1CEDB2082DE8D3E4B2082CDAD3A3
:1059B0009BF806005C4600EB80017A4800EB011082
:1059C0009BF80410405C202801D007F0CBFAE07867
:1059D000401C40B2E07002280BDDC82000F06CFED5
:1059E00089F800A00020E070A0706078401E607010
:1059F00008E099F90000012804D002284DD00328BE
:105A000067D07EE0674F00255C460026A0792179AB
:105A100000EB800007EB0010405C202829D0614992
:105A2000503101EBC000C6F107010844A0F58050D9
:105A300090F8F81D0AFA05F001421AD094F9010015
:105A4000218900EB800001EB800000B209AB08AABD
:105A500003A902F01DFD9DF824109DF82000CDE95A
:105A60000001681C6278C0B29DF80C30314605F028
:105A700027FF761CF6B2082EC8D36D1CEDB2082D98
:105A8000C3D3607803283CD1032189F8001084F83F
:105A900002A0C82000F010FE33E09BF801005F4632
:105AA00018B94FF47A7000F007FE0024264600254E
:105AB000641C009601967A78E0B20023294605F02E
:105AC000FFFE6D1CEDB2082DF3D3E4B2082CEED32B
:105AD00017E0002426465F460025641C00960196C8
